{
	"contracts/Fundme.sol": {
		"Fundme": {
			"abi": [
				{
					"inputs": [],
					"name": "getConversionRate",
					"outputs": [],
					"stateMutability": "nonpayable",
					"type": "function"
				},
				{
					"inputs": [],
					"name": "getPrice",
					"outputs": [],
					"stateMutability": "nonpayable",
					"type": "function"
				},
				{
					"inputs": [],
					"name": "send",
					"outputs": [],
					"stateMutability": "payable",
					"type": "function"
				}
			],
			"devdoc": {
				"kind": "dev",
				"methods": {},
				"version": 1
			},
			"evm": {
				"assembly": "    /* \"contracts/Fundme.sol\":74:317  contract  Fundme{... */\n  mstore(0x40, 0x80)\n    /* \"contracts/Fundme.sol\":118:120  50 */\n  0x32\n    /* \"contracts/Fundme.sol\":97:120  uint256 minimumUSD = 50 */\n  0x00\n  sstore\n    /* \"contracts/Fundme.sol\":74:317  contract  Fundme{... */\n  callvalue\n  dup1\n  iszero\n  tag_1\n  jumpi\n  0x00\n  dup1\n  revert\ntag_1:\n  pop\n  dataSize(sub_0)\n  dup1\n  dataOffset(sub_0)\n  0x00\n  codecopy\n  0x00\n  return\nstop\n\nsub_0: assembly {\n        /* \"contracts/Fundme.sol\":74:317  contract  Fundme{... */\n      mstore(0x40, 0x80)\n      jumpi(tag_1, lt(calldatasize, 0x04))\n      shr(0xe0, calldataload(0x00))\n      dup1\n      0x98d5fdca\n      eq\n      tag_2\n      jumpi\n      dup1\n      0xb46300ec\n      eq\n      tag_3\n      jumpi\n      dup1\n      0xf36089ec\n      eq\n      tag_4\n      jumpi\n    tag_1:\n      0x00\n      dup1\n      revert\n        /* \"contracts/Fundme.sol\":241:269  function getPrice() public{} */\n    tag_2:\n      callvalue\n      dup1\n      iszero\n      tag_5\n      jumpi\n      0x00\n      dup1\n      revert\n    tag_5:\n      pop\n      tag_6\n      tag_7\n      jump\t// in\n    tag_6:\n      stop\n        /* \"contracts/Fundme.sol\":127:233  function send() public payable{... */\n    tag_3:\n      tag_8\n      tag_9\n      jump\t// in\n    tag_8:\n      stop\n        /* \"contracts/Fundme.sol\":278:314  function getConversionRate()public{} */\n    tag_4:\n      callvalue\n      dup1\n      iszero\n      tag_10\n      jumpi\n      0x00\n      dup1\n      revert\n    tag_10:\n      pop\n      tag_11\n      tag_12\n      jump\t// in\n    tag_11:\n      stop\n        /* \"contracts/Fundme.sol\":241:269  function getPrice() public{} */\n    tag_7:\n      jump\t// out\n        /* \"contracts/Fundme.sol\":127:233  function send() public payable{... */\n    tag_9:\n        /* \"contracts/Fundme.sol\":188:189  5 */\n      0x05\n        /* \"contracts/Fundme.sol\":176:185  msg.value */\n      callvalue\n        /* \"contracts/Fundme.sol\":176:189  msg.value >=5 */\n      lt\n      iszero\n        /* \"contracts/Fundme.sol\":168:219  require(msg.value >=5, \"Cant send less than 50USD\") */\n      tag_15\n      jumpi\n      mload(0x40)\n      0x08c379a000000000000000000000000000000000000000000000000000000000\n      dup2\n      mstore\n      0x04\n      add\n      tag_16\n      swap1\n      tag_17\n      jump\t// in\n    tag_16:\n      mload(0x40)\n      dup1\n      swap2\n      sub\n      swap1\n      revert\n    tag_15:\n        /* \"contracts/Fundme.sol\":127:233  function send() public payable{... */\n      jump\t// out\n        /* \"contracts/Fundme.sol\":278:314  function getConversionRate()public{} */\n    tag_12:\n      jump\t// out\n        /* \"#utility.yul\":7:176   */\n    tag_19:\n        /* \"#utility.yul\":91:102   */\n      0x00\n        /* \"#utility.yul\":125:131   */\n      dup3\n        /* \"#utility.yul\":120:123   */\n      dup3\n        /* \"#utility.yul\":113:132   */\n      mstore\n        /* \"#utility.yul\":165:169   */\n      0x20\n        /* \"#utility.yul\":160:163   */\n      dup3\n        /* \"#utility.yul\":156:170   */\n      add\n        /* \"#utility.yul\":141:170   */\n      swap1\n      pop\n        /* \"#utility.yul\":7:176   */\n      swap3\n      swap2\n      pop\n      pop\n      jump\t// out\n        /* \"#utility.yul\":182:357   */\n    tag_20:\n        /* \"#utility.yul\":322:349   */\n      0x43616e742073656e64206c657373207468616e20353055534400000000000000\n        /* \"#utility.yul\":318:319   */\n      0x00\n        /* \"#utility.yul\":310:316   */\n      dup3\n        /* \"#utility.yul\":306:320   */\n      add\n        /* \"#utility.yul\":299:350   */\n      mstore\n        /* \"#utility.yul\":182:357   */\n      pop\n      jump\t// out\n        /* \"#utility.yul\":363:729   */\n    tag_21:\n        /* \"#utility.yul\":505:508   */\n      0x00\n        /* \"#utility.yul\":526:593   */\n      tag_26\n        /* \"#utility.yul\":590:592   */\n      0x19\n        /* \"#utility.yul\":585:588   */\n      dup4\n        /* \"#utility.yul\":526:593   */\n      tag_19\n      jump\t// in\n    tag_26:\n        /* \"#utility.yul\":519:593   */\n      swap2\n      pop\n        /* \"#utility.yul\":602:695   */\n      tag_27\n        /* \"#utility.yul\":691:694   */\n      dup3\n        /* \"#utility.yul\":602:695   */\n      tag_20\n      jump\t// in\n    tag_27:\n        /* \"#utility.yul\":720:722   */\n      0x20\n        /* \"#utility.yul\":715:718   */\n      dup3\n        /* \"#utility.yul\":711:723   */\n      add\n        /* \"#utility.yul\":704:723   */\n      swap1\n      pop\n        /* \"#utility.yul\":363:729   */\n      swap2\n      swap1\n      pop\n      jump\t// out\n        /* \"#utility.yul\":735:1154   */\n    tag_17:\n        /* \"#utility.yul\":901:905   */\n      0x00\n        /* \"#utility.yul\":939:941   */\n      0x20\n        /* \"#utility.yul\":928:937   */\n      dup3\n        /* \"#utility.yul\":924:942   */\n      add\n        /* \"#utility.yul\":916:942   */\n      swap1\n      pop\n        /* \"#utility.yul\":988:997   */\n      dup2\n        /* \"#utility.yul\":982:986   */\n      dup2\n        /* \"#utility.yul\":978:998   */\n      sub\n        /* \"#utility.yul\":974:975   */\n      0x00\n        /* \"#utility.yul\":963:972   */\n      dup4\n        /* \"#utility.yul\":959:976   */\n      add\n        /* \"#utility.yul\":952:999   */\n      mstore\n        /* \"#utility.yul\":1016:1147   */\n      tag_29\n        /* \"#utility.yul\":1142:1146   */\n      dup2\n        /* \"#utility.yul\":1016:1147   */\n      tag_21\n      jump\t// in\n    tag_29:\n        /* \"#utility.yul\":1008:1147   */\n      swap1\n      pop\n        /* \"#utility.yul\":735:1154   */\n      swap2\n      swap1\n      pop\n      jump\t// out\n\n    auxdata: 0xa2646970667358221220b440c778600f68866eb99f372f1be4940ef02482741d72f9c149147f6447d08e64736f6c634300081a0033\n}\n",
				"bytecode": {
					"linkReferences": {},
					"object": "608060405260325f553480156012575f80fd5b50610165806100205f395ff3fe608060405260043610610033575f3560e01c806398d5fdca14610037578063b46300ec1461004d578063f36089ec14610057575b5f80fd5b348015610042575f80fd5b5061004b61006d565b005b61005561006f565b005b348015610062575f80fd5b5061006b6100b5565b005b565b60053410156100b3576040517f08c379a00000000000000000000000000000000000000000000000000000000081526004016100aa90610111565b60405180910390fd5b565b565b5f82825260208201905092915050565b7f43616e742073656e64206c657373207468616e203530555344000000000000005f82015250565b5f6100fb6019836100b7565b9150610106826100c7565b602082019050919050565b5f6020820190508181035f830152610128816100ef565b905091905056fea2646970667358221220b440c778600f68866eb99f372f1be4940ef02482741d72f9c149147f6447d08e64736f6c634300081a0033",
					"opcodes": "PUSH1 0x80 PUSH1 0x40 MSTORE PUSH1 0x32 PUSH0 SSTORE CALLVALUE DUP1 ISZERO PUSH1 0x12 JUMPI PUSH0 DUP1 REVERT JUMPDEST POP PUSH2 0x165 DUP1 PUSH2 0x20 PUSH0 CODECOPY PUSH0 RETURN INVALID PUSH1 0x80 PUSH1 0x40 MSTORE PUSH1 0x4 CALLDATASIZE LT PUSH2 0x33 JUMPI PUSH0 CALLDATALOAD PUSH1 0xE0 SHR DUP1 PUSH4 0x98D5FDCA EQ PUSH2 0x37 JUMPI DUP1 PUSH4 0xB46300EC EQ PUSH2 0x4D JUMPI DUP1 PUSH4 0xF36089EC EQ PUSH2 0x57 JUMPI JUMPDEST PUSH0 DUP1 REVERT JUMPDEST CALLVALUE DUP1 ISZERO PUSH2 0x42 JUMPI PUSH0 DUP1 REVERT JUMPDEST POP PUSH2 0x4B PUSH2 0x6D JUMP JUMPDEST STOP JUMPDEST PUSH2 0x55 PUSH2 0x6F JUMP JUMPDEST STOP JUMPDEST CALLVALUE DUP1 ISZERO PUSH2 0x62 JUMPI PUSH0 DUP1 REVERT JUMPDEST POP PUSH2 0x6B PUSH2 0xB5 JUMP JUMPDEST STOP JUMPDEST JUMP JUMPDEST PUSH1 0x5 CALLVALUE LT ISZERO PUSH2 0xB3 JUMPI PUSH1 0x40 MLOAD PUSH32 0x8C379A000000000000000000000000000000000000000000000000000000000 DUP2 MSTORE PUSH1 0x4 ADD PUSH2 0xAA SWAP1 PUSH2 0x111 JUMP JUMPDEST PUSH1 0x40 MLOAD DUP1 SWAP2 SUB SWAP1 REVERT JUMPDEST JUMP JUMPDEST JUMP JUMPDEST PUSH0 DUP3 DUP3 MSTORE PUSH1 0x20 DUP3 ADD SWAP1 POP SWAP3 SWAP2 POP POP JUMP JUMPDEST PUSH32 0x43616E742073656E64206C657373207468616E20353055534400000000000000 PUSH0 DUP3 ADD MSTORE POP JUMP JUMPDEST PUSH0 PUSH2 0xFB PUSH1 0x19 DUP4 PUSH2 0xB7 JUMP JUMPDEST SWAP2 POP PUSH2 0x106 DUP3 PUSH2 0xC7 JUMP JUMPDEST PUSH1 0x20 DUP3 ADD SWAP1 POP SWAP2 SWAP1 POP JUMP JUMPDEST PUSH0 PUSH1 0x20 DUP3 ADD SWAP1 POP DUP2 DUP2 SUB PUSH0 DUP4 ADD MSTORE PUSH2 0x128 DUP2 PUSH2 0xEF JUMP JUMPDEST SWAP1 POP SWAP2 SWAP1 POP JUMP INVALID LOG2 PUSH5 0x6970667358 0x22 SLT KECCAK256 0xB4 BLOCKHASH 0xC7 PUSH25 0x600F68866EB99F372F1BE4940EF02482741D72F9C149147F64 SELFBALANCE 0xD0 DUP15 PUSH5 0x736F6C6343 STOP ADDMOD BYTE STOP CALLER "
				},
				"gasEstimates": {
					"creation": {
						"codeDepositCost": "71400",
						"executionCost": "22226",
						"totalCost": "93626"
					},
					"external": {
						"getConversionRate()": "165",
						"getPrice()": "121",
						"send()": "428"
					}
				},
				"methodIdentifiers": {
					"getConversionRate()": "f36089ec",
					"getPrice()": "98d5fdca",
					"send()": "b46300ec"
				}
			},
			"storageLayout": {
				"storage": [
					{
						"astId": 4,
						"contract": "contracts/Fundme.sol:Fundme",
						"label": "minimumUSD",
						"offset": 0,
						"slot": "0",
						"type": "t_uint256"
					}
				],
				"types": {
					"t_uint256": {
						"encoding": "inplace",
						"label": "uint256",
						"numberOfBytes": "32"
					}
				}
			},
			"userdoc": {
				"kind": "user",
				"methods": {},
				"version": 1
			}
		}
	}
}