{
	"contracts/Fundme.sol": {
		"Fundme": {
			"abi": [
				{
					"inputs": [
						{
							"internalType": "uint256",
							"name": "",
							"type": "uint256"
						}
					],
					"name": "funders",
					"outputs": [
						{
							"internalType": "address",
							"name": "",
							"type": "address"
						}
					],
					"stateMutability": "view",
					"type": "function"
				},
				{
					"inputs": [
						{
							"internalType": "uint256",
							"name": "ethAmmount",
							"type": "uint256"
						}
					],
					"name": "getConversionRate",
					"outputs": [
						{
							"internalType": "uint256",
							"name": "",
							"type": "uint256"
						}
					],
					"stateMutability": "view",
					"type": "function"
				},
				{
					"inputs": [],
					"name": "getPrice",
					"outputs": [
						{
							"internalType": "uint256",
							"name": "",
							"type": "uint256"
						}
					],
					"stateMutability": "view",
					"type": "function"
				},
				{
					"inputs": [],
					"name": "send",
					"outputs": [],
					"stateMutability": "payable",
					"type": "function"
				}
			],
			"devdoc": {
				"kind": "dev",
				"methods": {},
				"version": 1
			},
			"evm": {
				"assembly": "    /* \"contracts/Fundme.sol\":188:1063  contract  Fundme{... */\n  mstore(0x40, 0x80)\n    /* \"contracts/Fundme.sol\":232:241  50 * 1e18 */\n  0x02b5e3af16b1880000\n    /* \"contracts/Fundme.sol\":211:241  uint256 minimumUSD = 50 * 1e18 */\n  0x00\n  sstore\n    /* \"contracts/Fundme.sol\":188:1063  contract  Fundme{... */\n  callvalue\n  dup1\n  iszero\n  tag_1\n  jumpi\n  0x00\n  dup1\n  revert\ntag_1:\n  pop\n  dataSize(sub_0)\n  dup1\n  dataOffset(sub_0)\n  0x00\n  codecopy\n  0x00\n  return\nstop\n\nsub_0: assembly {\n        /* \"contracts/Fundme.sol\":188:1063  contract  Fundme{... */\n      mstore(0x40, 0x80)\n      jumpi(tag_1, lt(calldatasize, 0x04))\n      shr(0xe0, calldataload(0x00))\n      dup1\n      0x6e5b6b28\n      eq\n      tag_2\n      jumpi\n      dup1\n      0x98d5fdca\n      eq\n      tag_3\n      jumpi\n      dup1\n      0xb46300ec\n      eq\n      tag_4\n      jumpi\n      dup1\n      0xdc0d3dff\n      eq\n      tag_5\n      jumpi\n    tag_1:\n      0x00\n      dup1\n      revert\n        /* \"contracts/Fundme.sol\":852:1060  function getConversionRate(uint256 ethAmmount)public view returns(uint256){... */\n    tag_2:\n      callvalue\n      dup1\n      iszero\n      tag_6\n      jumpi\n      0x00\n      dup1\n      revert\n    tag_6:\n      pop\n      tag_7\n      0x04\n      dup1\n      calldatasize\n      sub\n      dup2\n      add\n      swap1\n      tag_8\n      swap2\n      swap1\n      tag_9\n      jump\t// in\n    tag_8:\n      tag_10\n      jump\t// in\n    tag_7:\n      mload(0x40)\n      tag_11\n      swap2\n      swap1\n      tag_12\n      jump\t// in\n    tag_11:\n      mload(0x40)\n      dup1\n      swap2\n      sub\n      swap1\n      return\n        /* \"contracts/Fundme.sol\":459:843  function getPrice() public view returns (uint256){... */\n    tag_3:\n      callvalue\n      dup1\n      iszero\n      tag_13\n      jumpi\n      0x00\n      dup1\n      revert\n    tag_13:\n      pop\n      tag_14\n      tag_15\n      jump\t// in\n    tag_14:\n      mload(0x40)\n      tag_16\n      swap2\n      swap1\n      tag_12\n      jump\t// in\n    tag_16:\n      mload(0x40)\n      dup1\n      swap2\n      sub\n      swap1\n      return\n        /* \"contracts/Fundme.sol\":280:451  function send() public payable{... */\n    tag_4:\n      tag_17\n      tag_18\n      jump\t// in\n    tag_17:\n      stop\n        /* \"contracts/Fundme.sol\":248:273  address[] public  funders */\n    tag_5:\n      callvalue\n      dup1\n      iszero\n      tag_19\n      jumpi\n      0x00\n      dup1\n      revert\n    tag_19:\n      pop\n      tag_20\n      0x04\n      dup1\n      calldatasize\n      sub\n      dup2\n      add\n      swap1\n      tag_21\n      swap2\n      swap1\n      tag_9\n      jump\t// in\n    tag_21:\n      tag_22\n      jump\t// in\n    tag_20:\n      mload(0x40)\n      tag_23\n      swap2\n      swap1\n      tag_24\n      jump\t// in\n    tag_23:\n      mload(0x40)\n      dup1\n      swap2\n      sub\n      swap1\n      return\n        /* \"contracts/Fundme.sol\":852:1060  function getConversionRate(uint256 ethAmmount)public view returns(uint256){... */\n    tag_10:\n        /* \"contracts/Fundme.sol\":918:925  uint256 */\n      0x00\n        /* \"contracts/Fundme.sol\":936:952  uint256 ethPrice */\n      dup1\n        /* \"contracts/Fundme.sol\":954:964  getPrice() */\n      tag_26\n        /* \"contracts/Fundme.sol\":954:962  getPrice */\n      tag_15\n        /* \"contracts/Fundme.sol\":954:964  getPrice() */\n      jump\t// in\n    tag_26:\n        /* \"contracts/Fundme.sol\":936:964  uint256 ethPrice =getPrice() */\n      swap1\n      pop\n        /* \"contracts/Fundme.sol\":974:990  uint256 ethInUsd */\n      0x00\n        /* \"contracts/Fundme.sol\":1019:1023  1e18 */\n      0x0de0b6b3a7640000\n        /* \"contracts/Fundme.sol\":1005:1015  ethAmmount */\n      dup5\n        /* \"contracts/Fundme.sol\":994:1002  ethPrice */\n      dup4\n        /* \"contracts/Fundme.sol\":994:1015  ethPrice * ethAmmount */\n      tag_27\n      swap2\n      swap1\n      tag_28\n      jump\t// in\n    tag_27:\n        /* \"contracts/Fundme.sol\":993:1023  (ethPrice * ethAmmount) / 1e18 */\n      tag_29\n      swap2\n      swap1\n      tag_30\n      jump\t// in\n    tag_29:\n        /* \"contracts/Fundme.sol\":974:1023  uint256 ethInUsd = (ethPrice * ethAmmount) / 1e18 */\n      swap1\n      pop\n        /* \"contracts/Fundme.sol\":1041:1049  ethInUsd */\n      dup1\n        /* \"contracts/Fundme.sol\":1034:1049  return ethInUsd */\n      swap3\n      pop\n      pop\n      pop\n        /* \"contracts/Fundme.sol\":852:1060  function getConversionRate(uint256 ethAmmount)public view returns(uint256){... */\n      swap2\n      swap1\n      pop\n      jump\t// out\n        /* \"contracts/Fundme.sol\":459:843  function getPrice() public view returns (uint256){... */\n    tag_15:\n        /* \"contracts/Fundme.sol\":500:507  uint256 */\n      0x00\n        /* \"contracts/Fundme.sol\":519:550  AggregatorV3Interface priceFeed */\n      dup1\n        /* \"contracts/Fundme.sol\":575:617  0x694AA1769357215DE4FAC081bf1f309aDC325306 */\n      0x694aa1769357215de4fac081bf1f309adc325306\n        /* \"contracts/Fundme.sol\":519:618  AggregatorV3Interface priceFeed = AggregatorV3Interface(0x694AA1769357215DE4FAC081bf1f309aDC325306) */\n      swap1\n      pop\n        /* \"contracts/Fundme.sol\":695:708  int256 answer */\n      0x00\n        /* \"contracts/Fundme.sol\":715:724  priceFeed */\n      dup2\n        /* \"contracts/Fundme.sol\":715:740  priceFeed.latestRoundData */\n      0xffffffffffffffffffffffffffffffffffffffff\n      and\n      0xfeaf968c\n        /* \"contracts/Fundme.sol\":715:742  priceFeed.latestRoundData() */\n      mload(0x40)\n      dup2\n      0xffffffff\n      and\n      0xe0\n      shl\n      dup2\n      mstore\n      0x04\n      add\n      0xa0\n      mload(0x40)\n      dup1\n      dup4\n      sub\n      dup2\n      dup7\n      gas\n      staticcall\n      iszero\n      dup1\n      iszero\n      tag_33\n      jumpi\n      returndatasize\n      0x00\n      dup1\n      returndatacopy\n      revert(0x00, returndatasize)\n    tag_33:\n      pop\n      pop\n      pop\n      pop\n      mload(0x40)\n      returndatasize\n      not(0x1f)\n      0x1f\n      dup3\n      add\n      and\n      dup3\n      add\n      dup1\n      0x40\n      mstore\n      pop\n      dup2\n      add\n      swap1\n      tag_34\n      swap2\n      swap1\n      tag_35\n      jump\t// in\n    tag_34:\n        /* \"contracts/Fundme.sol\":693:742  (,int256 answer,,,) = priceFeed.latestRoundData() */\n      pop\n      pop\n      pop\n      swap2\n      pop\n      pop\n        /* \"contracts/Fundme.sol\":818:822  1e18 */\n      0x0de0b6b3a7640000\n        /* \"contracts/Fundme.sol\":809:815  answer */\n      dup2\n        /* \"contracts/Fundme.sol\":809:822  answer * 1e18 */\n      tag_36\n      swap2\n      swap1\n      tag_37\n      jump\t// in\n    tag_36:\n        /* \"contracts/Fundme.sol\":794:823  return uint256(answer * 1e18) */\n      swap3\n      pop\n      pop\n      pop\n        /* \"contracts/Fundme.sol\":459:843  function getPrice() public view returns (uint256){... */\n      swap1\n      jump\t// out\n        /* \"contracts/Fundme.sol\":280:451  function send() public payable{... */\n    tag_18:\n        /* \"contracts/Fundme.sol\":370:372  50 */\n      0x32\n        /* \"contracts/Fundme.sol\":339:367  getConversionRate(msg.value) */\n      tag_39\n        /* \"contracts/Fundme.sol\":357:366  msg.value */\n      callvalue\n        /* \"contracts/Fundme.sol\":339:356  getConversionRate */\n      tag_10\n        /* \"contracts/Fundme.sol\":339:367  getConversionRate(msg.value) */\n      jump\t// in\n    tag_39:\n        /* \"contracts/Fundme.sol\":339:372  getConversionRate(msg.value) >=50 */\n      lt\n      iszero\n        /* \"contracts/Fundme.sol\":331:402  require(getConversionRate(msg.value) >=50, \"Cant send less than 50USD\") */\n      tag_40\n      jumpi\n      mload(0x40)\n      0x08c379a000000000000000000000000000000000000000000000000000000000\n      dup2\n      mstore\n      0x04\n      add\n      tag_41\n      swap1\n      tag_42\n      jump\t// in\n    tag_41:\n      mload(0x40)\n      dup1\n      swap2\n      sub\n      swap1\n      revert\n    tag_40:\n        /* \"contracts/Fundme.sol\":413:420  funders */\n      0x01\n        /* \"contracts/Fundme.sol\":426:436  msg.sender */\n      caller\n        /* \"contracts/Fundme.sol\":413:437  funders.push(msg.sender) */\n      swap1\n      dup1\n      0x01\n      dup2\n      sload\n      add\n      dup1\n      dup3\n      sstore\n      dup1\n      swap2\n      pop\n      pop\n      0x01\n      swap1\n      sub\n      swap1\n      0x00\n      mstore\n      keccak256(0x00, 0x20)\n      add\n      0x00\n      swap1\n      swap2\n      swap1\n      swap2\n      swap1\n      swap2\n      0x0100\n      exp\n      dup2\n      sload\n      dup2\n      0xffffffffffffffffffffffffffffffffffffffff\n      mul\n      not\n      and\n      swap1\n      dup4\n      0xffffffffffffffffffffffffffffffffffffffff\n      and\n      mul\n      or\n      swap1\n      sstore\n      pop\n        /* \"contracts/Fundme.sol\":280:451  function send() public payable{... */\n      jump\t// out\n        /* \"contracts/Fundme.sol\":248:273  address[] public  funders */\n    tag_22:\n      0x01\n      dup2\n      dup2\n      sload\n      dup2\n      lt\n      tag_44\n      jumpi\n      0x00\n      dup1\n      revert\n    tag_44:\n      swap1\n      0x00\n      mstore\n      keccak256(0x00, 0x20)\n      add\n      0x00\n      swap2\n      pop\n      sload\n      swap1\n      0x0100\n      exp\n      swap1\n      div\n      0xffffffffffffffffffffffffffffffffffffffff\n      and\n      dup2\n      jump\t// out\n        /* \"#utility.yul\":88:205   */\n    tag_47:\n        /* \"#utility.yul\":197:198   */\n      0x00\n        /* \"#utility.yul\":194:195   */\n      dup1\n        /* \"#utility.yul\":187:199   */\n      revert\n        /* \"#utility.yul\":334:411   */\n    tag_49:\n        /* \"#utility.yul\":371:378   */\n      0x00\n        /* \"#utility.yul\":400:405   */\n      dup2\n        /* \"#utility.yul\":389:405   */\n      swap1\n      pop\n        /* \"#utility.yul\":334:411   */\n      swap2\n      swap1\n      pop\n      jump\t// out\n        /* \"#utility.yul\":417:539   */\n    tag_50:\n        /* \"#utility.yul\":490:514   */\n      tag_74\n        /* \"#utility.yul\":508:513   */\n      dup2\n        /* \"#utility.yul\":490:514   */\n      tag_49\n      jump\t// in\n    tag_74:\n        /* \"#utility.yul\":483:488   */\n      dup2\n        /* \"#utility.yul\":480:515   */\n      eq\n        /* \"#utility.yul\":470:533   */\n      tag_75\n      jumpi\n        /* \"#utility.yul\":529:530   */\n      0x00\n        /* \"#utility.yul\":526:527   */\n      dup1\n        /* \"#utility.yul\":519:531   */\n      revert\n        /* \"#utility.yul\":470:533   */\n    tag_75:\n        /* \"#utility.yul\":417:539   */\n      pop\n      jump\t// out\n        /* \"#utility.yul\":545:684   */\n    tag_51:\n        /* \"#utility.yul\":591:596   */\n      0x00\n        /* \"#utility.yul\":629:635   */\n      dup2\n        /* \"#utility.yul\":616:636   */\n      calldataload\n        /* \"#utility.yul\":607:636   */\n      swap1\n      pop\n        /* \"#utility.yul\":645:678   */\n      tag_77\n        /* \"#utility.yul\":672:677   */\n      dup2\n        /* \"#utility.yul\":645:678   */\n      tag_50\n      jump\t// in\n    tag_77:\n        /* \"#utility.yul\":545:684   */\n      swap3\n      swap2\n      pop\n      pop\n      jump\t// out\n        /* \"#utility.yul\":690:1019   */\n    tag_9:\n        /* \"#utility.yul\":749:755   */\n      0x00\n        /* \"#utility.yul\":798:800   */\n      0x20\n        /* \"#utility.yul\":786:795   */\n      dup3\n        /* \"#utility.yul\":777:784   */\n      dup5\n        /* \"#utility.yul\":773:796   */\n      sub\n        /* \"#utility.yul\":769:801   */\n      slt\n        /* \"#utility.yul\":766:885   */\n      iszero\n      tag_79\n      jumpi\n        /* \"#utility.yul\":804:883   */\n      tag_80\n      tag_47\n      jump\t// in\n    tag_80:\n        /* \"#utility.yul\":766:885   */\n    tag_79:\n        /* \"#utility.yul\":924:925   */\n      0x00\n        /* \"#utility.yul\":949:1002   */\n      tag_81\n        /* \"#utility.yul\":994:1001   */\n      dup5\n        /* \"#utility.yul\":985:991   */\n      dup3\n        /* \"#utility.yul\":974:983   */\n      dup6\n        /* \"#utility.yul\":970:992   */\n      add\n        /* \"#utility.yul\":949:1002   */\n      tag_51\n      jump\t// in\n    tag_81:\n        /* \"#utility.yul\":939:1002   */\n      swap2\n      pop\n        /* \"#utility.yul\":895:1012   */\n      pop\n        /* \"#utility.yul\":690:1019   */\n      swap3\n      swap2\n      pop\n      pop\n      jump\t// out\n        /* \"#utility.yul\":1025:1143   */\n    tag_52:\n        /* \"#utility.yul\":1112:1136   */\n      tag_83\n        /* \"#utility.yul\":1130:1135   */\n      dup2\n        /* \"#utility.yul\":1112:1136   */\n      tag_49\n      jump\t// in\n    tag_83:\n        /* \"#utility.yul\":1107:1110   */\n      dup3\n        /* \"#utility.yul\":1100:1137   */\n      mstore\n        /* \"#utility.yul\":1025:1143   */\n      pop\n      pop\n      jump\t// out\n        /* \"#utility.yul\":1149:1371   */\n    tag_12:\n        /* \"#utility.yul\":1242:1246   */\n      0x00\n        /* \"#utility.yul\":1280:1282   */\n      0x20\n        /* \"#utility.yul\":1269:1278   */\n      dup3\n        /* \"#utility.yul\":1265:1283   */\n      add\n        /* \"#utility.yul\":1257:1283   */\n      swap1\n      pop\n        /* \"#utility.yul\":1293:1364   */\n      tag_85\n        /* \"#utility.yul\":1361:1362   */\n      0x00\n        /* \"#utility.yul\":1350:1359   */\n      dup4\n        /* \"#utility.yul\":1346:1363   */\n      add\n        /* \"#utility.yul\":1337:1343   */\n      dup5\n        /* \"#utility.yul\":1293:1364   */\n      tag_52\n      jump\t// in\n    tag_85:\n        /* \"#utility.yul\":1149:1371   */\n      swap3\n      swap2\n      pop\n      pop\n      jump\t// out\n        /* \"#utility.yul\":1377:1503   */\n    tag_53:\n        /* \"#utility.yul\":1414:1421   */\n      0x00\n        /* \"#utility.yul\":1454:1496   */\n      0xffffffffffffffffffffffffffffffffffffffff\n        /* \"#utility.yul\":1447:1452   */\n      dup3\n        /* \"#utility.yul\":1443:1497   */\n      and\n        /* \"#utility.yul\":1432:1497   */\n      swap1\n      pop\n        /* \"#utility.yul\":1377:1503   */\n      swap2\n      swap1\n      pop\n      jump\t// out\n        /* \"#utility.yul\":1509:1605   */\n    tag_54:\n        /* \"#utility.yul\":1546:1553   */\n      0x00\n        /* \"#utility.yul\":1575:1599   */\n      tag_88\n        /* \"#utility.yul\":1593:1598   */\n      dup3\n        /* \"#utility.yul\":1575:1599   */\n      tag_53\n      jump\t// in\n    tag_88:\n        /* \"#utility.yul\":1564:1599   */\n      swap1\n      pop\n        /* \"#utility.yul\":1509:1605   */\n      swap2\n      swap1\n      pop\n      jump\t// out\n        /* \"#utility.yul\":1611:1729   */\n    tag_55:\n        /* \"#utility.yul\":1698:1722   */\n      tag_90\n        /* \"#utility.yul\":1716:1721   */\n      dup2\n        /* \"#utility.yul\":1698:1722   */\n      tag_54\n      jump\t// in\n    tag_90:\n        /* \"#utility.yul\":1693:1696   */\n      dup3\n        /* \"#utility.yul\":1686:1723   */\n      mstore\n        /* \"#utility.yul\":1611:1729   */\n      pop\n      pop\n      jump\t// out\n        /* \"#utility.yul\":1735:1957   */\n    tag_24:\n        /* \"#utility.yul\":1828:1832   */\n      0x00\n        /* \"#utility.yul\":1866:1868   */\n      0x20\n        /* \"#utility.yul\":1855:1864   */\n      dup3\n        /* \"#utility.yul\":1851:1869   */\n      add\n        /* \"#utility.yul\":1843:1869   */\n      swap1\n      pop\n        /* \"#utility.yul\":1879:1950   */\n      tag_92\n        /* \"#utility.yul\":1947:1948   */\n      0x00\n        /* \"#utility.yul\":1936:1945   */\n      dup4\n        /* \"#utility.yul\":1932:1949   */\n      add\n        /* \"#utility.yul\":1923:1929   */\n      dup5\n        /* \"#utility.yul\":1879:1950   */\n      tag_55\n      jump\t// in\n    tag_92:\n        /* \"#utility.yul\":1735:1957   */\n      swap3\n      swap2\n      pop\n      pop\n      jump\t// out\n        /* \"#utility.yul\":1963:2143   */\n    tag_56:\n        /* \"#utility.yul\":2011:2088   */\n      0x4e487b7100000000000000000000000000000000000000000000000000000000\n        /* \"#utility.yul\":2008:2009   */\n      0x00\n        /* \"#utility.yul\":2001:2089   */\n      mstore\n        /* \"#utility.yul\":2108:2112   */\n      0x11\n        /* \"#utility.yul\":2105:2106   */\n      0x04\n        /* \"#utility.yul\":2098:2113   */\n      mstore\n        /* \"#utility.yul\":2132:2136   */\n      0x24\n        /* \"#utility.yul\":2129:2130   */\n      0x00\n        /* \"#utility.yul\":2122:2137   */\n      revert\n        /* \"#utility.yul\":2149:2559   */\n    tag_28:\n        /* \"#utility.yul\":2189:2196   */\n      0x00\n        /* \"#utility.yul\":2212:2232   */\n      tag_95\n        /* \"#utility.yul\":2230:2231   */\n      dup3\n        /* \"#utility.yul\":2212:2232   */\n      tag_49\n      jump\t// in\n    tag_95:\n        /* \"#utility.yul\":2207:2232   */\n      swap2\n      pop\n        /* \"#utility.yul\":2246:2266   */\n      tag_96\n        /* \"#utility.yul\":2264:2265   */\n      dup4\n        /* \"#utility.yul\":2246:2266   */\n      tag_49\n      jump\t// in\n    tag_96:\n        /* \"#utility.yul\":2241:2266   */\n      swap3\n      pop\n        /* \"#utility.yul\":2301:2302   */\n      dup3\n        /* \"#utility.yul\":2298:2299   */\n      dup3\n        /* \"#utility.yul\":2294:2303   */\n      mul\n        /* \"#utility.yul\":2323:2353   */\n      tag_97\n        /* \"#utility.yul\":2341:2352   */\n      dup2\n        /* \"#utility.yul\":2323:2353   */\n      tag_49\n      jump\t// in\n    tag_97:\n        /* \"#utility.yul\":2312:2353   */\n      swap2\n      pop\n        /* \"#utility.yul\":2502:2503   */\n      dup3\n        /* \"#utility.yul\":2493:2500   */\n      dup3\n        /* \"#utility.yul\":2489:2504   */\n      div\n        /* \"#utility.yul\":2486:2487   */\n      dup5\n        /* \"#utility.yul\":2483:2505   */\n      eq\n        /* \"#utility.yul\":2463:2464   */\n      dup4\n        /* \"#utility.yul\":2456:2465   */\n      iszero\n        /* \"#utility.yul\":2436:2519   */\n      or\n        /* \"#utility.yul\":2413:2552   */\n      tag_98\n      jumpi\n        /* \"#utility.yul\":2532:2550   */\n      tag_99\n      tag_56\n      jump\t// in\n    tag_99:\n        /* \"#utility.yul\":2413:2552   */\n    tag_98:\n        /* \"#utility.yul\":2197:2559   */\n      pop\n        /* \"#utility.yul\":2149:2559   */\n      swap3\n      swap2\n      pop\n      pop\n      jump\t// out\n        /* \"#utility.yul\":2565:2745   */\n    tag_57:\n        /* \"#utility.yul\":2613:2690   */\n      0x4e487b7100000000000000000000000000000000000000000000000000000000\n        /* \"#utility.yul\":2610:2611   */\n      0x00\n        /* \"#utility.yul\":2603:2691   */\n      mstore\n        /* \"#utility.yul\":2710:2714   */\n      0x12\n        /* \"#utility.yul\":2707:2708   */\n      0x04\n        /* \"#utility.yul\":2700:2715   */\n      mstore\n        /* \"#utility.yul\":2734:2738   */\n      0x24\n        /* \"#utility.yul\":2731:2732   */\n      0x00\n        /* \"#utility.yul\":2724:2739   */\n      revert\n        /* \"#utility.yul\":2751:2936   */\n    tag_30:\n        /* \"#utility.yul\":2791:2792   */\n      0x00\n        /* \"#utility.yul\":2808:2828   */\n      tag_102\n        /* \"#utility.yul\":2826:2827   */\n      dup3\n        /* \"#utility.yul\":2808:2828   */\n      tag_49\n      jump\t// in\n    tag_102:\n        /* \"#utility.yul\":2803:2828   */\n      swap2\n      pop\n        /* \"#utility.yul\":2842:2862   */\n      tag_103\n        /* \"#utility.yul\":2860:2861   */\n      dup4\n        /* \"#utility.yul\":2842:2862   */\n      tag_49\n      jump\t// in\n    tag_103:\n        /* \"#utility.yul\":2837:2862   */\n      swap3\n      pop\n        /* \"#utility.yul\":2881:2882   */\n      dup3\n        /* \"#utility.yul\":2871:2906   */\n      tag_104\n      jumpi\n        /* \"#utility.yul\":2886:2904   */\n      tag_105\n      tag_57\n      jump\t// in\n    tag_105:\n        /* \"#utility.yul\":2871:2906   */\n    tag_104:\n        /* \"#utility.yul\":2928:2929   */\n      dup3\n        /* \"#utility.yul\":2925:2926   */\n      dup3\n        /* \"#utility.yul\":2921:2930   */\n      div\n        /* \"#utility.yul\":2916:2930   */\n      swap1\n      pop\n        /* \"#utility.yul\":2751:2936   */\n      swap3\n      swap2\n      pop\n      pop\n      jump\t// out\n        /* \"#utility.yul\":2942:3047   */\n    tag_58:\n        /* \"#utility.yul\":2978:2985   */\n      0x00\n        /* \"#utility.yul\":3018:3040   */\n      0xffffffffffffffffffff\n        /* \"#utility.yul\":3011:3016   */\n      dup3\n        /* \"#utility.yul\":3007:3041   */\n      and\n        /* \"#utility.yul\":2996:3041   */\n      swap1\n      pop\n        /* \"#utility.yul\":2942:3047   */\n      swap2\n      swap1\n      pop\n      jump\t// out\n        /* \"#utility.yul\":3053:3173   */\n    tag_59:\n        /* \"#utility.yul\":3125:3148   */\n      tag_108\n        /* \"#utility.yul\":3142:3147   */\n      dup2\n        /* \"#utility.yul\":3125:3148   */\n      tag_58\n      jump\t// in\n    tag_108:\n        /* \"#utility.yul\":3118:3123   */\n      dup2\n        /* \"#utility.yul\":3115:3149   */\n      eq\n        /* \"#utility.yul\":3105:3167   */\n      tag_109\n      jumpi\n        /* \"#utility.yul\":3163:3164   */\n      0x00\n        /* \"#utility.yul\":3160:3161   */\n      dup1\n        /* \"#utility.yul\":3153:3165   */\n      revert\n        /* \"#utility.yul\":3105:3167   */\n    tag_109:\n        /* \"#utility.yul\":3053:3173   */\n      pop\n      jump\t// out\n        /* \"#utility.yul\":3179:3320   */\n    tag_60:\n        /* \"#utility.yul\":3235:3240   */\n      0x00\n        /* \"#utility.yul\":3266:3272   */\n      dup2\n        /* \"#utility.yul\":3260:3273   */\n      mload\n        /* \"#utility.yul\":3251:3273   */\n      swap1\n      pop\n        /* \"#utility.yul\":3282:3314   */\n      tag_111\n        /* \"#utility.yul\":3308:3313   */\n      dup2\n        /* \"#utility.yul\":3282:3314   */\n      tag_59\n      jump\t// in\n    tag_111:\n        /* \"#utility.yul\":3179:3320   */\n      swap3\n      swap2\n      pop\n      pop\n      jump\t// out\n        /* \"#utility.yul\":3326:3402   */\n    tag_61:\n        /* \"#utility.yul\":3362:3369   */\n      0x00\n        /* \"#utility.yul\":3391:3396   */\n      dup2\n        /* \"#utility.yul\":3380:3396   */\n      swap1\n      pop\n        /* \"#utility.yul\":3326:3402   */\n      swap2\n      swap1\n      pop\n      jump\t// out\n        /* \"#utility.yul\":3408:3528   */\n    tag_62:\n        /* \"#utility.yul\":3480:3503   */\n      tag_114\n        /* \"#utility.yul\":3497:3502   */\n      dup2\n        /* \"#utility.yul\":3480:3503   */\n      tag_61\n      jump\t// in\n    tag_114:\n        /* \"#utility.yul\":3473:3478   */\n      dup2\n        /* \"#utility.yul\":3470:3504   */\n      eq\n        /* \"#utility.yul\":3460:3522   */\n      tag_115\n      jumpi\n        /* \"#utility.yul\":3518:3519   */\n      0x00\n        /* \"#utility.yul\":3515:3516   */\n      dup1\n        /* \"#utility.yul\":3508:3520   */\n      revert\n        /* \"#utility.yul\":3460:3522   */\n    tag_115:\n        /* \"#utility.yul\":3408:3528   */\n      pop\n      jump\t// out\n        /* \"#utility.yul\":3534:3675   */\n    tag_63:\n        /* \"#utility.yul\":3590:3595   */\n      0x00\n        /* \"#utility.yul\":3621:3627   */\n      dup2\n        /* \"#utility.yul\":3615:3628   */\n      mload\n        /* \"#utility.yul\":3606:3628   */\n      swap1\n      pop\n        /* \"#utility.yul\":3637:3669   */\n      tag_117\n        /* \"#utility.yul\":3663:3668   */\n      dup2\n        /* \"#utility.yul\":3637:3669   */\n      tag_62\n      jump\t// in\n    tag_117:\n        /* \"#utility.yul\":3534:3675   */\n      swap3\n      swap2\n      pop\n      pop\n      jump\t// out\n        /* \"#utility.yul\":3681:3824   */\n    tag_64:\n        /* \"#utility.yul\":3738:3743   */\n      0x00\n        /* \"#utility.yul\":3769:3775   */\n      dup2\n        /* \"#utility.yul\":3763:3776   */\n      mload\n        /* \"#utility.yul\":3754:3776   */\n      swap1\n      pop\n        /* \"#utility.yul\":3785:3818   */\n      tag_119\n        /* \"#utility.yul\":3812:3817   */\n      dup2\n        /* \"#utility.yul\":3785:3818   */\n      tag_50\n      jump\t// in\n    tag_119:\n        /* \"#utility.yul\":3681:3824   */\n      swap3\n      swap2\n      pop\n      pop\n      jump\t// out\n        /* \"#utility.yul\":3830:4801   */\n    tag_35:\n        /* \"#utility.yul\":3933:3939   */\n      0x00\n        /* \"#utility.yul\":3941:3947   */\n      dup1\n        /* \"#utility.yul\":3949:3955   */\n      0x00\n        /* \"#utility.yul\":3957:3963   */\n      dup1\n        /* \"#utility.yul\":3965:3971   */\n      0x00\n        /* \"#utility.yul\":4014:4017   */\n      0xa0\n        /* \"#utility.yul\":4002:4011   */\n      dup7\n        /* \"#utility.yul\":3993:4000   */\n      dup9\n        /* \"#utility.yul\":3989:4012   */\n      sub\n        /* \"#utility.yul\":3985:4018   */\n      slt\n        /* \"#utility.yul\":3982:4102   */\n      iszero\n      tag_121\n      jumpi\n        /* \"#utility.yul\":4021:4100   */\n      tag_122\n      tag_47\n      jump\t// in\n    tag_122:\n        /* \"#utility.yul\":3982:4102   */\n    tag_121:\n        /* \"#utility.yul\":4141:4142   */\n      0x00\n        /* \"#utility.yul\":4166:4229   */\n      tag_123\n        /* \"#utility.yul\":4221:4228   */\n      dup9\n        /* \"#utility.yul\":4212:4218   */\n      dup3\n        /* \"#utility.yul\":4201:4210   */\n      dup10\n        /* \"#utility.yul\":4197:4219   */\n      add\n        /* \"#utility.yul\":4166:4229   */\n      tag_60\n      jump\t// in\n    tag_123:\n        /* \"#utility.yul\":4156:4229   */\n      swap6\n      pop\n        /* \"#utility.yul\":4112:4239   */\n      pop\n        /* \"#utility.yul\":4278:4280   */\n      0x20\n        /* \"#utility.yul\":4304:4367   */\n      tag_124\n        /* \"#utility.yul\":4359:4366   */\n      dup9\n        /* \"#utility.yul\":4350:4356   */\n      dup3\n        /* \"#utility.yul\":4339:4348   */\n      dup10\n        /* \"#utility.yul\":4335:4357   */\n      add\n        /* \"#utility.yul\":4304:4367   */\n      tag_63\n      jump\t// in\n    tag_124:\n        /* \"#utility.yul\":4294:4367   */\n      swap5\n      pop\n        /* \"#utility.yul\":4249:4377   */\n      pop\n        /* \"#utility.yul\":4416:4418   */\n      0x40\n        /* \"#utility.yul\":4442:4506   */\n      tag_125\n        /* \"#utility.yul\":4498:4505   */\n      dup9\n        /* \"#utility.yul\":4489:4495   */\n      dup3\n        /* \"#utility.yul\":4478:4487   */\n      dup10\n        /* \"#utility.yul\":4474:4496   */\n      add\n        /* \"#utility.yul\":4442:4506   */\n      tag_64\n      jump\t// in\n    tag_125:\n        /* \"#utility.yul\":4432:4506   */\n      swap4\n      pop\n        /* \"#utility.yul\":4387:4516   */\n      pop\n        /* \"#utility.yul\":4555:4557   */\n      0x60\n        /* \"#utility.yul\":4581:4645   */\n      tag_126\n        /* \"#utility.yul\":4637:4644   */\n      dup9\n        /* \"#utility.yul\":4628:4634   */\n      dup3\n        /* \"#utility.yul\":4617:4626   */\n      dup10\n        /* \"#utility.yul\":4613:4635   */\n      add\n        /* \"#utility.yul\":4581:4645   */\n      tag_64\n      jump\t// in\n    tag_126:\n        /* \"#utility.yul\":4571:4645   */\n      swap3\n      pop\n        /* \"#utility.yul\":4526:4655   */\n      pop\n        /* \"#utility.yul\":4694:4697   */\n      0x80\n        /* \"#utility.yul\":4721:4784   */\n      tag_127\n        /* \"#utility.yul\":4776:4783   */\n      dup9\n        /* \"#utility.yul\":4767:4773   */\n      dup3\n        /* \"#utility.yul\":4756:4765   */\n      dup10\n        /* \"#utility.yul\":4752:4774   */\n      add\n        /* \"#utility.yul\":4721:4784   */\n      tag_60\n      jump\t// in\n    tag_127:\n        /* \"#utility.yul\":4711:4784   */\n      swap2\n      pop\n        /* \"#utility.yul\":4665:4794   */\n      pop\n        /* \"#utility.yul\":3830:4801   */\n      swap3\n      swap6\n      pop\n      swap3\n      swap6\n      swap1\n      swap4\n      pop\n      jump\t// out\n        /* \"#utility.yul\":4807:5363   */\n    tag_37:\n        /* \"#utility.yul\":4846:4853   */\n      0x00\n        /* \"#utility.yul\":4869:4888   */\n      tag_129\n        /* \"#utility.yul\":4886:4887   */\n      dup3\n        /* \"#utility.yul\":4869:4888   */\n      tag_61\n      jump\t// in\n    tag_129:\n        /* \"#utility.yul\":4864:4888   */\n      swap2\n      pop\n        /* \"#utility.yul\":4902:4921   */\n      tag_130\n        /* \"#utility.yul\":4919:4920   */\n      dup4\n        /* \"#utility.yul\":4902:4921   */\n      tag_61\n      jump\t// in\n    tag_130:\n        /* \"#utility.yul\":4897:4921   */\n      swap3\n      pop\n        /* \"#utility.yul\":4956:4957   */\n      dup3\n        /* \"#utility.yul\":4953:4954   */\n      dup3\n        /* \"#utility.yul\":4949:4958   */\n      mul\n        /* \"#utility.yul\":4978:5007   */\n      tag_131\n        /* \"#utility.yul\":4995:5006   */\n      dup2\n        /* \"#utility.yul\":4978:5007   */\n      tag_61\n      jump\t// in\n    tag_131:\n        /* \"#utility.yul\":4967:5007   */\n      swap2\n      pop\n        /* \"#utility.yul\":5065:5131   */\n      0x8000000000000000000000000000000000000000000000000000000000000000\n        /* \"#utility.yul\":5062:5063   */\n      dup5\n        /* \"#utility.yul\":5059:5132   */\n      eq\n        /* \"#utility.yul\":5055:5056   */\n      0x00\n        /* \"#utility.yul\":5052:5053   */\n      dup5\n        /* \"#utility.yul\":5048:5057   */\n      slt\n        /* \"#utility.yul\":5044:5133   */\n      and\n        /* \"#utility.yul\":5041:5156   */\n      iszero\n      tag_132\n      jumpi\n        /* \"#utility.yul\":5136:5154   */\n      tag_133\n      tag_56\n      jump\t// in\n    tag_133:\n        /* \"#utility.yul\":5041:5156   */\n    tag_132:\n        /* \"#utility.yul\":5306:5307   */\n      dup3\n        /* \"#utility.yul\":5297:5304   */\n      dup3\n        /* \"#utility.yul\":5292:5308   */\n      sdiv\n        /* \"#utility.yul\":5289:5290   */\n      dup5\n        /* \"#utility.yul\":5286:5309   */\n      eq\n        /* \"#utility.yul\":5266:5267   */\n      dup4\n        /* \"#utility.yul\":5259:5268   */\n      iszero\n        /* \"#utility.yul\":5239:5323   */\n      or\n        /* \"#utility.yul\":5216:5356   */\n      tag_134\n      jumpi\n        /* \"#utility.yul\":5336:5354   */\n      tag_135\n      tag_56\n      jump\t// in\n    tag_135:\n        /* \"#utility.yul\":5216:5356   */\n    tag_134:\n        /* \"#utility.yul\":4854:5363   */\n      pop\n        /* \"#utility.yul\":4807:5363   */\n      swap3\n      swap2\n      pop\n      pop\n      jump\t// out\n        /* \"#utility.yul\":5369:5538   */\n    tag_65:\n        /* \"#utility.yul\":5453:5464   */\n      0x00\n        /* \"#utility.yul\":5487:5493   */\n      dup3\n        /* \"#utility.yul\":5482:5485   */\n      dup3\n        /* \"#utility.yul\":5475:5494   */\n      mstore\n        /* \"#utility.yul\":5527:5531   */\n      0x20\n        /* \"#utility.yul\":5522:5525   */\n      dup3\n        /* \"#utility.yul\":5518:5532   */\n      add\n        /* \"#utility.yul\":5503:5532   */\n      swap1\n      pop\n        /* \"#utility.yul\":5369:5538   */\n      swap3\n      swap2\n      pop\n      pop\n      jump\t// out\n        /* \"#utility.yul\":5544:5719   */\n    tag_66:\n        /* \"#utility.yul\":5684:5711   */\n      0x43616e742073656e64206c657373207468616e20353055534400000000000000\n        /* \"#utility.yul\":5680:5681   */\n      0x00\n        /* \"#utility.yul\":5672:5678   */\n      dup3\n        /* \"#utility.yul\":5668:5682   */\n      add\n        /* \"#utility.yul\":5661:5712   */\n      mstore\n        /* \"#utility.yul\":5544:5719   */\n      pop\n      jump\t// out\n        /* \"#utility.yul\":5725:6091   */\n    tag_67:\n        /* \"#utility.yul\":5867:5870   */\n      0x00\n        /* \"#utility.yul\":5888:5955   */\n      tag_139\n        /* \"#utility.yul\":5952:5954   */\n      0x19\n        /* \"#utility.yul\":5947:5950   */\n      dup4\n        /* \"#utility.yul\":5888:5955   */\n      tag_65\n      jump\t// in\n    tag_139:\n        /* \"#utility.yul\":5881:5955   */\n      swap2\n      pop\n        /* \"#utility.yul\":5964:6057   */\n      tag_140\n        /* \"#utility.yul\":6053:6056   */\n      dup3\n        /* \"#utility.yul\":5964:6057   */\n      tag_66\n      jump\t// in\n    tag_140:\n        /* \"#utility.yul\":6082:6084   */\n      0x20\n        /* \"#utility.yul\":6077:6080   */\n      dup3\n        /* \"#utility.yul\":6073:6085   */\n      add\n        /* \"#utility.yul\":6066:6085   */\n      swap1\n      pop\n        /* \"#utility.yul\":5725:6091   */\n      swap2\n      swap1\n      pop\n      jump\t// out\n        /* \"#utility.yul\":6097:6516   */\n    tag_42:\n        /* \"#utility.yul\":6263:6267   */\n      0x00\n        /* \"#utility.yul\":6301:6303   */\n      0x20\n        /* \"#utility.yul\":6290:6299   */\n      dup3\n        /* \"#utility.yul\":6286:6304   */\n      add\n        /* \"#utility.yul\":6278:6304   */\n      swap1\n      pop\n        /* \"#utility.yul\":6350:6359   */\n      dup2\n        /* \"#utility.yul\":6344:6348   */\n      dup2\n        /* \"#utility.yul\":6340:6360   */\n      sub\n        /* \"#utility.yul\":6336:6337   */\n      0x00\n        /* \"#utility.yul\":6325:6334   */\n      dup4\n        /* \"#utility.yul\":6321:6338   */\n      add\n        /* \"#utility.yul\":6314:6361   */\n      mstore\n        /* \"#utility.yul\":6378:6509   */\n      tag_142\n        /* \"#utility.yul\":6504:6508   */\n      dup2\n        /* \"#utility.yul\":6378:6509   */\n      tag_67\n      jump\t// in\n    tag_142:\n        /* \"#utility.yul\":6370:6509   */\n      swap1\n      pop\n        /* \"#utility.yul\":6097:6516   */\n      swap2\n      swap1\n      pop\n      jump\t// out\n\n    auxdata: 0xa26469706673582212208e340fb379d9345a6ef0dfe49bea2ca5a5bd90c1081b6339fc0fa3b6f1d2be3864736f6c634300081a0033\n}\n",
				"bytecode": {
					"linkReferences": {},
					"object": "60806040526802b5e3af16b18800005f55348015601a575f80fd5b50610685806100285f395ff3fe60806040526004361061003e575f3560e01c80636e5b6b281461004257806398d5fdca1461007e578063b46300ec146100a8578063dc0d3dff146100b2575b5f80fd5b34801561004d575f80fd5b50610068600480360381019061006391906102ee565b6100ee565b6040516100759190610328565b60405180910390f35b348015610089575f80fd5b50610092610126565b60405161009f9190610328565b60405180910390f35b6100b06101ce565b005b3480156100bd575f80fd5b506100d860048036038101906100d391906102ee565b61027c565b6040516100e59190610380565b60405180910390f35b5f806100f8610126565b90505f670de0b6b3a7640000848361011091906103c6565b61011a9190610434565b90508092505050919050565b5f8073694aa1769357215de4fac081bf1f309adc32530690505f8173ffffffffffffffffffffffffffffffffffffffff1663feaf968c6040518163ffffffff1660e01b815260040160a060405180830381865afa158015610189573d5f803e3d5ffd5b505050506040513d601f19601f820116820180604052508101906101ad91906104ea565b505050915050670de0b6b3a7640000816101c79190610561565b9250505090565b60326101d9346100ee565b101561021a576040517f08c379a000000000000000000000000000000000000000000000000000000000815260040161021190610631565b60405180910390fd5b600133908060018154018082558091505060019003905f5260205f20015f9091909190916101000a81548173ffffffffffffffffffffffffffffffffffffffff021916908373ffffffffffffffffffffffffffffffffffffffff160217905550565b6001818154811061028b575f80fd5b905f5260205f20015f915054906101000a900473ffffffffffffffffffffffffffffffffffffffff1681565b5f80fd5b5f819050919050565b6102cd816102bb565b81146102d7575f80fd5b50565b5f813590506102e8816102c4565b92915050565b5f60208284031215610303576103026102b7565b5b5f610310848285016102da565b91505092915050565b610322816102bb565b82525050565b5f60208201905061033b5f830184610319565b92915050565b5f73ffffffffffffffffffffffffffffffffffffffff82169050919050565b5f61036a82610341565b9050919050565b61037a81610360565b82525050565b5f6020820190506103935f830184610371565b92915050565b7f4e487b71000000000000000000000000000000000000000000000000000000005f52601160045260245ffd5b5f6103d0826102bb565b91506103db836102bb565b92508282026103e9816102bb565b91508282048414831517610400576103ff610399565b5b5092915050565b7f4e487b71000000000000000000000000000000000000000000000000000000005f52601260045260245ffd5b5f61043e826102bb565b9150610449836102bb565b92508261045957610458610407565b5b828204905092915050565b5f69ffffffffffffffffffff82169050919050565b61048281610464565b811461048c575f80fd5b50565b5f8151905061049d81610479565b92915050565b5f819050919050565b6104b5816104a3565b81146104bf575f80fd5b50565b5f815190506104d0816104ac565b92915050565b5f815190506104e4816102c4565b92915050565b5f805f805f60a08688031215610503576105026102b7565b5b5f6105108882890161048f565b9550506020610521888289016104c2565b9450506040610532888289016104d6565b9350506060610543888289016104d6565b92505060806105548882890161048f565b9150509295509295909350565b5f61056b826104a3565b9150610576836104a3565b9250828202610584816104a3565b91507f800000000000000000000000000000000000000000000000000000000000000084145f841216156105bb576105ba610399565b5b82820584148315176105d0576105cf610399565b5b5092915050565b5f82825260208201905092915050565b7f43616e742073656e64206c657373207468616e203530555344000000000000005f82015250565b5f61061b6019836105d7565b9150610626826105e7565b602082019050919050565b5f6020820190508181035f8301526106488161060f565b905091905056fea26469706673582212208e340fb379d9345a6ef0dfe49bea2ca5a5bd90c1081b6339fc0fa3b6f1d2be3864736f6c634300081a0033",
					"opcodes": "PUSH1 0x80 PUSH1 0x40 MSTORE PUSH9 0x2B5E3AF16B1880000 PUSH0 SSTORE CALLVALUE DUP1 ISZERO PUSH1 0x1A JUMPI PUSH0 DUP1 REVERT JUMPDEST POP PUSH2 0x685 DUP1 PUSH2 0x28 PUSH0 CODECOPY PUSH0 RETURN INVALID PUSH1 0x80 PUSH1 0x40 MSTORE PUSH1 0x4 CALLDATASIZE LT PUSH2 0x3E JUMPI PUSH0 CALLDATALOAD PUSH1 0xE0 SHR DUP1 PUSH4 0x6E5B6B28 EQ PUSH2 0x42 JUMPI DUP1 PUSH4 0x98D5FDCA EQ PUSH2 0x7E JUMPI DUP1 PUSH4 0xB46300EC EQ PUSH2 0xA8 JUMPI DUP1 PUSH4 0xDC0D3DFF EQ PUSH2 0xB2 JUMPI JUMPDEST PUSH0 DUP1 REVERT JUMPDEST CALLVALUE DUP1 ISZERO PUSH2 0x4D JUMPI PUSH0 DUP1 REVERT JUMPDEST POP PUSH2 0x68 PUSH1 0x4 DUP1 CALLDATASIZE SUB DUP2 ADD SWAP1 PUSH2 0x63 SWAP2 SWAP1 PUSH2 0x2EE JUMP JUMPDEST PUSH2 0xEE JUMP JUMPDEST PUSH1 0x40 MLOAD PUSH2 0x75 SWAP2 SWAP1 PUSH2 0x328 JUMP JUMPDEST PUSH1 0x40 MLOAD DUP1 SWAP2 SUB SWAP1 RETURN JUMPDEST CALLVALUE DUP1 ISZERO PUSH2 0x89 JUMPI PUSH0 DUP1 REVERT JUMPDEST POP PUSH2 0x92 PUSH2 0x126 JUMP JUMPDEST PUSH1 0x40 MLOAD PUSH2 0x9F SWAP2 SWAP1 PUSH2 0x328 JUMP JUMPDEST PUSH1 0x40 MLOAD DUP1 SWAP2 SUB SWAP1 RETURN JUMPDEST PUSH2 0xB0 PUSH2 0x1CE JUMP JUMPDEST STOP JUMPDEST CALLVALUE DUP1 ISZERO PUSH2 0xBD JUMPI PUSH0 DUP1 REVERT JUMPDEST POP PUSH2 0xD8 PUSH1 0x4 DUP1 CALLDATASIZE SUB DUP2 ADD SWAP1 PUSH2 0xD3 SWAP2 SWAP1 PUSH2 0x2EE JUMP JUMPDEST PUSH2 0x27C JUMP JUMPDEST PUSH1 0x40 MLOAD PUSH2 0xE5 SWAP2 SWAP1 PUSH2 0x380 JUMP JUMPDEST PUSH1 0x40 MLOAD DUP1 SWAP2 SUB SWAP1 RETURN JUMPDEST PUSH0 DUP1 PUSH2 0xF8 PUSH2 0x126 JUMP JUMPDEST SWAP1 POP PUSH0 PUSH8 0xDE0B6B3A7640000 DUP5 DUP4 PUSH2 0x110 SWAP2 SWAP1 PUSH2 0x3C6 JUMP JUMPDEST PUSH2 0x11A SWAP2 SWAP1 PUSH2 0x434 JUMP JUMPDEST SWAP1 POP DUP1 SWAP3 POP POP POP SWAP2 SWAP1 POP JUMP JUMPDEST PUSH0 DUP1 PUSH20 0x694AA1769357215DE4FAC081BF1F309ADC325306 SWAP1 POP PUSH0 DUP2 PUSH20 0xFFFFFFFFFFFFFFFFFFFFFFFFFFFFFFFFFFFFFFFF AND PUSH4 0xFEAF968C PUSH1 0x40 MLOAD DUP2 PUSH4 0xFFFFFFFF AND PUSH1 0xE0 SHL DUP2 MSTORE PUSH1 0x4 ADD PUSH1 0xA0 PUSH1 0x40 MLOAD DUP1 DUP4 SUB DUP2 DUP7 GAS STATICCALL ISZERO DUP1 ISZERO PUSH2 0x189 JUMPI RETURNDATASIZE PUSH0 DUP1 RETURNDATACOPY RETURNDATASIZE PUSH0 REVERT JUMPDEST POP POP POP POP PUSH1 0x40 MLOAD RETURNDATASIZE PUSH1 0x1F NOT PUSH1 0x1F DUP3 ADD AND DUP3 ADD DUP1 PUSH1 0x40 MSTORE POP DUP2 ADD SWAP1 PUSH2 0x1AD SWAP2 SWAP1 PUSH2 0x4EA JUMP JUMPDEST POP POP POP SWAP2 POP POP PUSH8 0xDE0B6B3A7640000 DUP2 PUSH2 0x1C7 SWAP2 SWAP1 PUSH2 0x561 JUMP JUMPDEST SWAP3 POP POP POP SWAP1 JUMP JUMPDEST PUSH1 0x32 PUSH2 0x1D9 CALLVALUE PUSH2 0xEE JUMP JUMPDEST LT ISZERO PUSH2 0x21A JUMPI PUSH1 0x40 MLOAD PUSH32 0x8C379A000000000000000000000000000000000000000000000000000000000 DUP2 MSTORE PUSH1 0x4 ADD PUSH2 0x211 SWAP1 PUSH2 0x631 JUMP JUMPDEST PUSH1 0x40 MLOAD DUP1 SWAP2 SUB SWAP1 REVERT JUMPDEST PUSH1 0x1 CALLER SWAP1 DUP1 PUSH1 0x1 DUP2 SLOAD ADD DUP1 DUP3 SSTORE DUP1 SWAP2 POP POP PUSH1 0x1 SWAP1 SUB SWAP1 PUSH0 MSTORE PUSH1 0x20 PUSH0 KECCAK256 ADD PUSH0 SWAP1 SWAP2 SWAP1 SWAP2 SWAP1 SWAP2 PUSH2 0x100 EXP DUP2 SLOAD DUP2 PUSH20 0xFFFFFFFFFFFFFFFFFFFFFFFFFFFFFFFFFFFFFFFF MUL NOT AND SWAP1 DUP4 PUSH20 0xFFFFFFFFFFFFFFFFFFFFFFFFFFFFFFFFFFFFFFFF AND MUL OR SWAP1 SSTORE POP JUMP JUMPDEST PUSH1 0x1 DUP2 DUP2 SLOAD DUP2 LT PUSH2 0x28B JUMPI PUSH0 DUP1 REVERT JUMPDEST SWAP1 PUSH0 MSTORE PUSH1 0x20 PUSH0 KECCAK256 ADD PUSH0 SWAP2 POP SLOAD SWAP1 PUSH2 0x100 EXP SWAP1 DIV PUSH20 0xFFFFFFFFFFFFFFFFFFFFFFFFFFFFFFFFFFFFFFFF AND DUP2 JUMP JUMPDEST PUSH0 DUP1 REVERT JUMPDEST PUSH0 DUP2 SWAP1 POP SWAP2 SWAP1 POP JUMP JUMPDEST PUSH2 0x2CD DUP2 PUSH2 0x2BB JUMP JUMPDEST DUP2 EQ PUSH2 0x2D7 JUMPI PUSH0 DUP1 REVERT JUMPDEST POP JUMP JUMPDEST PUSH0 DUP2 CALLDATALOAD SWAP1 POP PUSH2 0x2E8 DUP2 PUSH2 0x2C4 JUMP JUMPDEST SWAP3 SWAP2 POP POP JUMP JUMPDEST PUSH0 PUSH1 0x20 DUP3 DUP5 SUB SLT ISZERO PUSH2 0x303 JUMPI PUSH2 0x302 PUSH2 0x2B7 JUMP JUMPDEST JUMPDEST PUSH0 PUSH2 0x310 DUP5 DUP3 DUP6 ADD PUSH2 0x2DA JUMP JUMPDEST SWAP2 POP POP SWAP3 SWAP2 POP POP JUMP JUMPDEST PUSH2 0x322 DUP2 PUSH2 0x2BB JUMP JUMPDEST DUP3 MSTORE POP POP JUMP JUMPDEST PUSH0 PUSH1 0x20 DUP3 ADD SWAP1 POP PUSH2 0x33B PUSH0 DUP4 ADD DUP5 PUSH2 0x319 JUMP JUMPDEST SWAP3 SWAP2 POP POP JUMP JUMPDEST PUSH0 PUSH20 0xFFFFFFFFFFFFFFFFFFFFFFFFFFFFFFFFFFFFFFFF DUP3 AND SWAP1 POP SWAP2 SWAP1 POP JUMP JUMPDEST PUSH0 PUSH2 0x36A DUP3 PUSH2 0x341 JUMP JUMPDEST SWAP1 POP SWAP2 SWAP1 POP JUMP JUMPDEST PUSH2 0x37A DUP2 PUSH2 0x360 JUMP JUMPDEST DUP3 MSTORE POP POP JUMP JUMPDEST PUSH0 PUSH1 0x20 DUP3 ADD SWAP1 POP PUSH2 0x393 PUSH0 DUP4 ADD DUP5 PUSH2 0x371 JUMP JUMPDEST SWAP3 SWAP2 POP POP JUMP JUMPDEST PUSH32 0x4E487B7100000000000000000000000000000000000000000000000000000000 PUSH0 MSTORE PUSH1 0x11 PUSH1 0x4 MSTORE PUSH1 0x24 PUSH0 REVERT JUMPDEST PUSH0 PUSH2 0x3D0 DUP3 PUSH2 0x2BB JUMP JUMPDEST SWAP2 POP PUSH2 0x3DB DUP4 PUSH2 0x2BB JUMP JUMPDEST SWAP3 POP DUP3 DUP3 MUL PUSH2 0x3E9 DUP2 PUSH2 0x2BB JUMP JUMPDEST SWAP2 POP DUP3 DUP3 DIV DUP5 EQ DUP4 ISZERO OR PUSH2 0x400 JUMPI PUSH2 0x3FF PUSH2 0x399 JUMP JUMPDEST JUMPDEST POP SWAP3 SWAP2 POP POP JUMP JUMPDEST PUSH32 0x4E487B7100000000000000000000000000000000000000000000000000000000 PUSH0 MSTORE PUSH1 0x12 PUSH1 0x4 MSTORE PUSH1 0x24 PUSH0 REVERT JUMPDEST PUSH0 PUSH2 0x43E DUP3 PUSH2 0x2BB JUMP JUMPDEST SWAP2 POP PUSH2 0x449 DUP4 PUSH2 0x2BB JUMP JUMPDEST SWAP3 POP DUP3 PUSH2 0x459 JUMPI PUSH2 0x458 PUSH2 0x407 JUMP JUMPDEST JUMPDEST DUP3 DUP3 DIV SWAP1 POP SWAP3 SWAP2 POP POP JUMP JUMPDEST PUSH0 PUSH10 0xFFFFFFFFFFFFFFFFFFFF DUP3 AND SWAP1 POP SWAP2 SWAP1 POP JUMP JUMPDEST PUSH2 0x482 DUP2 PUSH2 0x464 JUMP JUMPDEST DUP2 EQ PUSH2 0x48C JUMPI PUSH0 DUP1 REVERT JUMPDEST POP JUMP JUMPDEST PUSH0 DUP2 MLOAD SWAP1 POP PUSH2 0x49D DUP2 PUSH2 0x479 JUMP JUMPDEST SWAP3 SWAP2 POP POP JUMP JUMPDEST PUSH0 DUP2 SWAP1 POP SWAP2 SWAP1 POP JUMP JUMPDEST PUSH2 0x4B5 DUP2 PUSH2 0x4A3 JUMP JUMPDEST DUP2 EQ PUSH2 0x4BF JUMPI PUSH0 DUP1 REVERT JUMPDEST POP JUMP JUMPDEST PUSH0 DUP2 MLOAD SWAP1 POP PUSH2 0x4D0 DUP2 PUSH2 0x4AC JUMP JUMPDEST SWAP3 SWAP2 POP POP JUMP JUMPDEST PUSH0 DUP2 MLOAD SWAP1 POP PUSH2 0x4E4 DUP2 PUSH2 0x2C4 JUMP JUMPDEST SWAP3 SWAP2 POP POP JUMP JUMPDEST PUSH0 DUP1 PUSH0 DUP1 PUSH0 PUSH1 0xA0 DUP7 DUP9 SUB SLT ISZERO PUSH2 0x503 JUMPI PUSH2 0x502 PUSH2 0x2B7 JUMP JUMPDEST JUMPDEST PUSH0 PUSH2 0x510 DUP9 DUP3 DUP10 ADD PUSH2 0x48F JUMP JUMPDEST SWAP6 POP POP PUSH1 0x20 PUSH2 0x521 DUP9 DUP3 DUP10 ADD PUSH2 0x4C2 JUMP JUMPDEST SWAP5 POP POP PUSH1 0x40 PUSH2 0x532 DUP9 DUP3 DUP10 ADD PUSH2 0x4D6 JUMP JUMPDEST SWAP4 POP POP PUSH1 0x60 PUSH2 0x543 DUP9 DUP3 DUP10 ADD PUSH2 0x4D6 JUMP JUMPDEST SWAP3 POP POP PUSH1 0x80 PUSH2 0x554 DUP9 DUP3 DUP10 ADD PUSH2 0x48F JUMP JUMPDEST SWAP2 POP POP SWAP3 SWAP6 POP SWAP3 SWAP6 SWAP1 SWAP4 POP JUMP JUMPDEST PUSH0 PUSH2 0x56B DUP3 PUSH2 0x4A3 JUMP JUMPDEST SWAP2 POP PUSH2 0x576 DUP4 PUSH2 0x4A3 JUMP JUMPDEST SWAP3 POP DUP3 DUP3 MUL PUSH2 0x584 DUP2 PUSH2 0x4A3 JUMP JUMPDEST SWAP2 POP PUSH32 0x8000000000000000000000000000000000000000000000000000000000000000 DUP5 EQ PUSH0 DUP5 SLT AND ISZERO PUSH2 0x5BB JUMPI PUSH2 0x5BA PUSH2 0x399 JUMP JUMPDEST JUMPDEST DUP3 DUP3 SDIV DUP5 EQ DUP4 ISZERO OR PUSH2 0x5D0 JUMPI PUSH2 0x5CF PUSH2 0x399 JUMP JUMPDEST JUMPDEST POP SWAP3 SWAP2 POP POP JUMP JUMPDEST PUSH0 DUP3 DUP3 MSTORE PUSH1 0x20 DUP3 ADD SWAP1 POP SWAP3 SWAP2 POP POP JUMP JUMPDEST PUSH32 0x43616E742073656E64206C657373207468616E20353055534400000000000000 PUSH0 DUP3 ADD MSTORE POP JUMP JUMPDEST PUSH0 PUSH2 0x61B PUSH1 0x19 DUP4 PUSH2 0x5D7 JUMP JUMPDEST SWAP2 POP PUSH2 0x626 DUP3 PUSH2 0x5E7 JUMP JUMPDEST PUSH1 0x20 DUP3 ADD SWAP1 POP SWAP2 SWAP1 POP JUMP JUMPDEST PUSH0 PUSH1 0x20 DUP3 ADD SWAP1 POP DUP2 DUP2 SUB PUSH0 DUP4 ADD MSTORE PUSH2 0x648 DUP2 PUSH2 0x60F JUMP JUMPDEST SWAP1 POP SWAP2 SWAP1 POP JUMP INVALID LOG2 PUSH5 0x6970667358 0x22 SLT KECCAK256 DUP15 CALLVALUE 0xF 0xB3 PUSH26 0xD9345A6EF0DFE49BEA2CA5A5BD90C1081B6339FC0FA3B6F1D2BE CODESIZE PUSH5 0x736F6C6343 STOP ADDMOD BYTE STOP CALLER "
				},
				"gasEstimates": {
					"creation": {
						"codeDepositCost": "333800",
						"executionCost": "22477",
						"totalCost": "356277"
					},
					"external": {
						"funders(uint256)": "4988",
						"getConversionRate(uint256)": "infinite",
						"getPrice()": "infinite",
						"send()": "infinite"
					}
				},
				"methodIdentifiers": {
					"funders(uint256)": "dc0d3dff",
					"getConversionRate(uint256)": "6e5b6b28",
					"getPrice()": "98d5fdca",
					"send()": "b46300ec"
				}
			},
			"storageLayout": {
				"storage": [
					{
						"astId": 54,
						"contract": "contracts/Fundme.sol:Fundme",
						"label": "minimumUSD",
						"offset": 0,
						"slot": "0",
						"type": "t_uint256"
					},
					{
						"astId": 57,
						"contract": "contracts/Fundme.sol:Fundme",
						"label": "funders",
						"offset": 0,
						"slot": "1",
						"type": "t_array(t_address)dyn_storage"
					}
				],
				"types": {
					"t_address": {
						"encoding": "inplace",
						"label": "address",
						"numberOfBytes": "20"
					},
					"t_array(t_address)dyn_storage": {
						"base": "t_address",
						"encoding": "dynamic_array",
						"label": "address[]",
						"numberOfBytes": "32"
					},
					"t_uint256": {
						"encoding": "inplace",
						"label": "uint256",
						"numberOfBytes": "32"
					}
				}
			},
			"userdoc": {
				"kind": "user",
				"methods": {},
				"version": 1
			}
		}
	}
}