{
	"data": {
		"bytecode": {
			"linkReferences": {},
			"object": "608060405260325f553480156012575f80fd5b50610112806100205f395ff3fe608060405260043610601b575f3560e01c8063b46300ec14601f575b5f80fd5b60256027565b005b60053410156068576040517f08c379a0000000000000000000000000000000000000000000000000000000008152600401605f9060c0565b60405180910390fd5b565b5f82825260208201905092915050565b7f43616e742073656e64206c657373207468616e203530555344000000000000005f82015250565b5f60ac601983606a565b915060b582607a565b602082019050919050565b5f6020820190508181035f83015260d58160a2565b905091905056fea2646970667358221220f2447145afd2ce001ee985352468ca4486f38fb6c9aaa9f5dfa3ef3bdc23242764736f6c634300081a0033",
			"opcodes": "PUSH1 0x80 PUSH1 0x40 MSTORE PUSH1 0x32 PUSH0 SSTORE CALLVALUE DUP1 ISZERO PUSH1 0x12 JUMPI PUSH0 DUP1 REVERT JUMPDEST POP PUSH2 0x112 DUP1 PUSH2 0x20 PUSH0 CODECOPY PUSH0 RETURN INVALID PUSH1 0x80 PUSH1 0x40 MSTORE PUSH1 0x4 CALLDATASIZE LT PUSH1 0x1B JUMPI PUSH0 CALLDATALOAD PUSH1 0xE0 SHR DUP1 PUSH4 0xB46300EC EQ PUSH1 0x1F JUMPI JUMPDEST PUSH0 DUP1 REVERT JUMPDEST PUSH1 0x25 PUSH1 0x27 JUMP JUMPDEST STOP JUMPDEST PUSH1 0x5 CALLVALUE LT ISZERO PUSH1 0x68 JUMPI PUSH1 0x40 MLOAD PUSH32 0x8C379A000000000000000000000000000000000000000000000000000000000 DUP2 MSTORE PUSH1 0x4 ADD PUSH1 0x5F SWAP1 PUSH1 0xC0 JUMP JUMPDEST PUSH1 0x40 MLOAD DUP1 SWAP2 SUB SWAP1 REVERT JUMPDEST JUMP JUMPDEST PUSH0 DUP3 DUP3 MSTORE PUSH1 0x20 DUP3 ADD SWAP1 POP SWAP3 SWAP2 POP POP JUMP JUMPDEST PUSH32 0x43616E742073656E64206C657373207468616E20353055534400000000000000 PUSH0 DUP3 ADD MSTORE POP JUMP JUMPDEST PUSH0 PUSH1 0xAC PUSH1 0x19 DUP4 PUSH1 0x6A JUMP JUMPDEST SWAP2 POP PUSH1 0xB5 DUP3 PUSH1 0x7A JUMP JUMPDEST PUSH1 0x20 DUP3 ADD SWAP1 POP SWAP2 SWAP1 POP JUMP JUMPDEST PUSH0 PUSH1 0x20 DUP3 ADD SWAP1 POP DUP2 DUP2 SUB PUSH0 DUP4 ADD MSTORE PUSH1 0xD5 DUP2 PUSH1 0xA2 JUMP JUMPDEST SWAP1 POP SWAP2 SWAP1 POP JUMP INVALID LOG2 PUSH5 0x6970667358 0x22 SLT KECCAK256 CALLCODE PREVRANDAO PUSH18 0x45AFD2CE001EE985352468CA4486F38FB6C9 0xAA 0xA9 CREATE2 0xDF LOG3 0xEF EXTCODESIZE 0xDC 0x23 0x24 0x27 PUSH5 0x736F6C6343 STOP ADDMOD BYTE STOP CALLER "
		},
		"gasEstimates": {
			"creation": {
				"codeDepositCost": "54800",
				"executionCost": "22208",
				"totalCost": "77008"
			},
			"external": {
				"send()": "406"
			}
		},
		"methodIdentifiers": {
			"send()": "b46300ec"
		}
	},
	"abi": [
		{
			"inputs": [],
			"name": "send",
			"outputs": [],
			"stateMutability": "payable",
			"type": "function"
		}
	]
}