{
	"data": {
		"bytecode": {
			"linkReferences": {},
			"object": "608060405260325f553480156012575f80fd5b5061053d806100205f395ff3fe608060405260043610610033575f3560e01c80636e5b6b281461003757806398d5fdca14610073578063b46300ec1461009d575b5f80fd5b348015610042575f80fd5b5061005d600480360381019061005891906101fe565b6100a7565b60405161006a9190610238565b60405180910390f35b34801561007e575f80fd5b506100876100dc565b6040516100949190610238565b60405180910390f35b6100a5610181565b005b5f806100b16100dc565b90505f6402540be40084836100c6919061027e565b6100d091906102ec565b90508092505050919050565b5f8073694aa1769357215de4fac081bf1f309adc32530690505f8173ffffffffffffffffffffffffffffffffffffffff1663feaf968c6040518163ffffffff1660e01b815260040160a060405180830381865afa15801561013f573d5f803e3d5ffd5b505050506040513d601f19601f8201168201806040525081019061016391906103a2565b5050509150506402540be4008161017a9190610419565b9250505090565b60053410156101c5576040517f08c379a00000000000000000000000000000000000000000000000000000000081526004016101bc906104e9565b60405180910390fd5b565b5f80fd5b5f819050919050565b6101dd816101cb565b81146101e7575f80fd5b50565b5f813590506101f8816101d4565b92915050565b5f60208284031215610213576102126101c7565b5b5f610220848285016101ea565b91505092915050565b610232816101cb565b82525050565b5f60208201905061024b5f830184610229565b92915050565b7f4e487b71000000000000000000000000000000000000000000000000000000005f52601160045260245ffd5b5f610288826101cb565b9150610293836101cb565b92508282026102a1816101cb565b915082820484148315176102b8576102b7610251565b5b5092915050565b7f4e487b71000000000000000000000000000000000000000000000000000000005f52601260045260245ffd5b5f6102f6826101cb565b9150610301836101cb565b925082610311576103106102bf565b5b828204905092915050565b5f69ffffffffffffffffffff82169050919050565b61033a8161031c565b8114610344575f80fd5b50565b5f8151905061035581610331565b92915050565b5f819050919050565b61036d8161035b565b8114610377575f80fd5b50565b5f8151905061038881610364565b92915050565b5f8151905061039c816101d4565b92915050565b5f805f805f60a086880312156103bb576103ba6101c7565b5b5f6103c888828901610347565b95505060206103d98882890161037a565b94505060406103ea8882890161038e565b93505060606103fb8882890161038e565b925050608061040c88828901610347565b9150509295509295909350565b5f6104238261035b565b915061042e8361035b565b925082820261043c8161035b565b91507f800000000000000000000000000000000000000000000000000000000000000084145f8412161561047357610472610251565b5b828205841483151761048857610487610251565b5b5092915050565b5f82825260208201905092915050565b7f43616e742073656e64206c657373207468616e203530555344000000000000005f82015250565b5f6104d360198361048f565b91506104de8261049f565b602082019050919050565b5f6020820190508181035f830152610500816104c7565b905091905056fea2646970667358221220481276e10af21b7c700560a332d25d85762d2a81dcdc862b38605ca7c6cdf55f64736f6c634300081a0033",
			"opcodes": "PUSH1 0x80 PUSH1 0x40 MSTORE PUSH1 0x32 PUSH0 SSTORE CALLVALUE DUP1 ISZERO PUSH1 0x12 JUMPI PUSH0 DUP1 REVERT JUMPDEST POP PUSH2 0x53D DUP1 PUSH2 0x20 PUSH0 CODECOPY PUSH0 RETURN INVALID PUSH1 0x80 PUSH1 0x40 MSTORE PUSH1 0x4 CALLDATASIZE LT PUSH2 0x33 JUMPI PUSH0 CALLDATALOAD PUSH1 0xE0 SHR DUP1 PUSH4 0x6E5B6B28 EQ PUSH2 0x37 JUMPI DUP1 PUSH4 0x98D5FDCA EQ PUSH2 0x73 JUMPI DUP1 PUSH4 0xB46300EC EQ PUSH2 0x9D JUMPI JUMPDEST PUSH0 DUP1 REVERT JUMPDEST CALLVALUE DUP1 ISZERO PUSH2 0x42 JUMPI PUSH0 DUP1 REVERT JUMPDEST POP PUSH2 0x5D PUSH1 0x4 DUP1 CALLDATASIZE SUB DUP2 ADD SWAP1 PUSH2 0x58 SWAP2 SWAP1 PUSH2 0x1FE JUMP JUMPDEST PUSH2 0xA7 JUMP JUMPDEST PUSH1 0x40 MLOAD PUSH2 0x6A SWAP2 SWAP1 PUSH2 0x238 JUMP JUMPDEST PUSH1 0x40 MLOAD DUP1 SWAP2 SUB SWAP1 RETURN JUMPDEST CALLVALUE DUP1 ISZERO PUSH2 0x7E JUMPI PUSH0 DUP1 REVERT JUMPDEST POP PUSH2 0x87 PUSH2 0xDC JUMP JUMPDEST PUSH1 0x40 MLOAD PUSH2 0x94 SWAP2 SWAP1 PUSH2 0x238 JUMP JUMPDEST PUSH1 0x40 MLOAD DUP1 SWAP2 SUB SWAP1 RETURN JUMPDEST PUSH2 0xA5 PUSH2 0x181 JUMP JUMPDEST STOP JUMPDEST PUSH0 DUP1 PUSH2 0xB1 PUSH2 0xDC JUMP JUMPDEST SWAP1 POP PUSH0 PUSH5 0x2540BE400 DUP5 DUP4 PUSH2 0xC6 SWAP2 SWAP1 PUSH2 0x27E JUMP JUMPDEST PUSH2 0xD0 SWAP2 SWAP1 PUSH2 0x2EC JUMP JUMPDEST SWAP1 POP DUP1 SWAP3 POP POP POP SWAP2 SWAP1 POP JUMP JUMPDEST PUSH0 DUP1 PUSH20 0x694AA1769357215DE4FAC081BF1F309ADC325306 SWAP1 POP PUSH0 DUP2 PUSH20 0xFFFFFFFFFFFFFFFFFFFFFFFFFFFFFFFFFFFFFFFF AND PUSH4 0xFEAF968C PUSH1 0x40 MLOAD DUP2 PUSH4 0xFFFFFFFF AND PUSH1 0xE0 SHL DUP2 MSTORE PUSH1 0x4 ADD PUSH1 0xA0 PUSH1 0x40 MLOAD DUP1 DUP4 SUB DUP2 DUP7 GAS STATICCALL ISZERO DUP1 ISZERO PUSH2 0x13F JUMPI RETURNDATASIZE PUSH0 DUP1 RETURNDATACOPY RETURNDATASIZE PUSH0 REVERT JUMPDEST POP POP POP POP PUSH1 0x40 MLOAD RETURNDATASIZE PUSH1 0x1F NOT PUSH1 0x1F DUP3 ADD AND DUP3 ADD DUP1 PUSH1 0x40 MSTORE POP DUP2 ADD SWAP1 PUSH2 0x163 SWAP2 SWAP1 PUSH2 0x3A2 JUMP JUMPDEST POP POP POP SWAP2 POP POP PUSH5 0x2540BE400 DUP2 PUSH2 0x17A SWAP2 SWAP1 PUSH2 0x419 JUMP JUMPDEST SWAP3 POP POP POP SWAP1 JUMP JUMPDEST PUSH1 0x5 CALLVALUE LT ISZERO PUSH2 0x1C5 JUMPI PUSH1 0x40 MLOAD PUSH32 0x8C379A000000000000000000000000000000000000000000000000000000000 DUP2 MSTORE PUSH1 0x4 ADD PUSH2 0x1BC SWAP1 PUSH2 0x4E9 JUMP JUMPDEST PUSH1 0x40 MLOAD DUP1 SWAP2 SUB SWAP1 REVERT JUMPDEST JUMP JUMPDEST PUSH0 DUP1 REVERT JUMPDEST PUSH0 DUP2 SWAP1 POP SWAP2 SWAP1 POP JUMP JUMPDEST PUSH2 0x1DD DUP2 PUSH2 0x1CB JUMP JUMPDEST DUP2 EQ PUSH2 0x1E7 JUMPI PUSH0 DUP1 REVERT JUMPDEST POP JUMP JUMPDEST PUSH0 DUP2 CALLDATALOAD SWAP1 POP PUSH2 0x1F8 DUP2 PUSH2 0x1D4 JUMP JUMPDEST SWAP3 SWAP2 POP POP JUMP JUMPDEST PUSH0 PUSH1 0x20 DUP3 DUP5 SUB SLT ISZERO PUSH2 0x213 JUMPI PUSH2 0x212 PUSH2 0x1C7 JUMP JUMPDEST JUMPDEST PUSH0 PUSH2 0x220 DUP5 DUP3 DUP6 ADD PUSH2 0x1EA JUMP JUMPDEST SWAP2 POP POP SWAP3 SWAP2 POP POP JUMP JUMPDEST PUSH2 0x232 DUP2 PUSH2 0x1CB JUMP JUMPDEST DUP3 MSTORE POP POP JUMP JUMPDEST PUSH0 PUSH1 0x20 DUP3 ADD SWAP1 POP PUSH2 0x24B PUSH0 DUP4 ADD DUP5 PUSH2 0x229 JUMP JUMPDEST SWAP3 SWAP2 POP POP JUMP JUMPDEST PUSH32 0x4E487B7100000000000000000000000000000000000000000000000000000000 PUSH0 MSTORE PUSH1 0x11 PUSH1 0x4 MSTORE PUSH1 0x24 PUSH0 REVERT JUMPDEST PUSH0 PUSH2 0x288 DUP3 PUSH2 0x1CB JUMP JUMPDEST SWAP2 POP PUSH2 0x293 DUP4 PUSH2 0x1CB JUMP JUMPDEST SWAP3 POP DUP3 DUP3 MUL PUSH2 0x2A1 DUP2 PUSH2 0x1CB JUMP JUMPDEST SWAP2 POP DUP3 DUP3 DIV DUP5 EQ DUP4 ISZERO OR PUSH2 0x2B8 JUMPI PUSH2 0x2B7 PUSH2 0x251 JUMP JUMPDEST JUMPDEST POP SWAP3 SWAP2 POP POP JUMP JUMPDEST PUSH32 0x4E487B7100000000000000000000000000000000000000000000000000000000 PUSH0 MSTORE PUSH1 0x12 PUSH1 0x4 MSTORE PUSH1 0x24 PUSH0 REVERT JUMPDEST PUSH0 PUSH2 0x2F6 DUP3 PUSH2 0x1CB JUMP JUMPDEST SWAP2 POP PUSH2 0x301 DUP4 PUSH2 0x1CB JUMP JUMPDEST SWAP3 POP DUP3 PUSH2 0x311 JUMPI PUSH2 0x310 PUSH2 0x2BF JUMP JUMPDEST JUMPDEST DUP3 DUP3 DIV SWAP1 POP SWAP3 SWAP2 POP POP JUMP JUMPDEST PUSH0 PUSH10 0xFFFFFFFFFFFFFFFFFFFF DUP3 AND SWAP1 POP SWAP2 SWAP1 POP JUMP JUMPDEST PUSH2 0x33A DUP2 PUSH2 0x31C JUMP JUMPDEST DUP2 EQ PUSH2 0x344 JUMPI PUSH0 DUP1 REVERT JUMPDEST POP JUMP JUMPDEST PUSH0 DUP2 MLOAD SWAP1 POP PUSH2 0x355 DUP2 PUSH2 0x331 JUMP JUMPDEST SWAP3 SWAP2 POP POP JUMP JUMPDEST PUSH0 DUP2 SWAP1 POP SWAP2 SWAP1 POP JUMP JUMPDEST PUSH2 0x36D DUP2 PUSH2 0x35B JUMP JUMPDEST DUP2 EQ PUSH2 0x377 JUMPI PUSH0 DUP1 REVERT JUMPDEST POP JUMP JUMPDEST PUSH0 DUP2 MLOAD SWAP1 POP PUSH2 0x388 DUP2 PUSH2 0x364 JUMP JUMPDEST SWAP3 SWAP2 POP POP JUMP JUMPDEST PUSH0 DUP2 MLOAD SWAP1 POP PUSH2 0x39C DUP2 PUSH2 0x1D4 JUMP JUMPDEST SWAP3 SWAP2 POP POP JUMP JUMPDEST PUSH0 DUP1 PUSH0 DUP1 PUSH0 PUSH1 0xA0 DUP7 DUP9 SUB SLT ISZERO PUSH2 0x3BB JUMPI PUSH2 0x3BA PUSH2 0x1C7 JUMP JUMPDEST JUMPDEST PUSH0 PUSH2 0x3C8 DUP9 DUP3 DUP10 ADD PUSH2 0x347 JUMP JUMPDEST SWAP6 POP POP PUSH1 0x20 PUSH2 0x3D9 DUP9 DUP3 DUP10 ADD PUSH2 0x37A JUMP JUMPDEST SWAP5 POP POP PUSH1 0x40 PUSH2 0x3EA DUP9 DUP3 DUP10 ADD PUSH2 0x38E JUMP JUMPDEST SWAP4 POP POP PUSH1 0x60 PUSH2 0x3FB DUP9 DUP3 DUP10 ADD PUSH2 0x38E JUMP JUMPDEST SWAP3 POP POP PUSH1 0x80 PUSH2 0x40C DUP9 DUP3 DUP10 ADD PUSH2 0x347 JUMP JUMPDEST SWAP2 POP POP SWAP3 SWAP6 POP SWAP3 SWAP6 SWAP1 SWAP4 POP JUMP JUMPDEST PUSH0 PUSH2 0x423 DUP3 PUSH2 0x35B JUMP JUMPDEST SWAP2 POP PUSH2 0x42E DUP4 PUSH2 0x35B JUMP JUMPDEST SWAP3 POP DUP3 DUP3 MUL PUSH2 0x43C DUP2 PUSH2 0x35B JUMP JUMPDEST SWAP2 POP PUSH32 0x8000000000000000000000000000000000000000000000000000000000000000 DUP5 EQ PUSH0 DUP5 SLT AND ISZERO PUSH2 0x473 JUMPI PUSH2 0x472 PUSH2 0x251 JUMP JUMPDEST JUMPDEST DUP3 DUP3 SDIV DUP5 EQ DUP4 ISZERO OR PUSH2 0x488 JUMPI PUSH2 0x487 PUSH2 0x251 JUMP JUMPDEST JUMPDEST POP SWAP3 SWAP2 POP POP JUMP JUMPDEST PUSH0 DUP3 DUP3 MSTORE PUSH1 0x20 DUP3 ADD SWAP1 POP SWAP3 SWAP2 POP POP JUMP JUMPDEST PUSH32 0x43616E742073656E64206C657373207468616E20353055534400000000000000 PUSH0 DUP3 ADD MSTORE POP JUMP JUMPDEST PUSH0 PUSH2 0x4D3 PUSH1 0x19 DUP4 PUSH2 0x48F JUMP JUMPDEST SWAP2 POP PUSH2 0x4DE DUP3 PUSH2 0x49F JUMP JUMPDEST PUSH1 0x20 DUP3 ADD SWAP1 POP SWAP2 SWAP1 POP JUMP JUMPDEST PUSH0 PUSH1 0x20 DUP3 ADD SWAP1 POP DUP2 DUP2 SUB PUSH0 DUP4 ADD MSTORE PUSH2 0x500 DUP2 PUSH2 0x4C7 JUMP JUMPDEST SWAP1 POP SWAP2 SWAP1 POP JUMP INVALID LOG2 PUSH5 0x6970667358 0x22 SLT KECCAK256 BASEFEE SLT PUSH23 0xE10AF21B7C700560A332D25D85762D2A81DCDC862B3860 TLOAD 0xA7 0xC6 0xCD CREATE2 PUSH0 PUSH5 0x736F6C6343 STOP ADDMOD BYTE STOP CALLER "
		},
		"gasEstimates": {
			"creation": {
				"codeDepositCost": "268200",
				"executionCost": "22409",
				"totalCost": "290609"
			},
			"external": {
				"getConversionRate(uint256)": "infinite",
				"getPrice()": "infinite",
				"send()": "450"
			}
		},
		"methodIdentifiers": {
			"getConversionRate(uint256)": "6e5b6b28",
			"getPrice()": "98d5fdca",
			"send()": "b46300ec"
		}
	},
	"abi": [
		{
			"inputs": [
				{
					"internalType": "uint256",
					"name": "ethAmmount",
					"type": "uint256"
				}
			],
			"name": "getConversionRate",
			"outputs": [
				{
					"internalType": "uint256",
					"name": "",
					"type": "uint256"
				}
			],
			"stateMutability": "view",
			"type": "function"
		},
		{
			"inputs": [],
			"name": "getPrice",
			"outputs": [
				{
					"internalType": "uint256",
					"name": "",
					"type": "uint256"
				}
			],
			"stateMutability": "view",
			"type": "function"
		},
		{
			"inputs": [],
			"name": "send",
			"outputs": [],
			"stateMutability": "payable",
			"type": "function"
		}
	]
}