{
	"data": {
		"bytecode": {
			"linkReferences": {},
			"object": "6080604052348015600e575f80fd5b5061031e8061001c5f395ff3fe608060405234801561000f575f80fd5b5060043610610034575f3560e01c806340d66b3b146100385780636be0d6bf14610042575b5f80fd5b610040610060565b005b61004a6100c6565b6040516100579190610170565b60405180910390f35b60405161006c906100e9565b604051809103905ff080158015610085573d5f803e3d5ffd5b505f806101000a81548173ffffffffffffffffffffffffffffffffffffffff021916908373ffffffffffffffffffffffffffffffffffffffff160217905550565b5f8054906101000a900473ffffffffffffffffffffffffffffffffffffffff1681565b61015f8061018a83390190565b5f73ffffffffffffffffffffffffffffffffffffffff82169050919050565b5f819050919050565b5f61013861013361012e846100f6565b610115565b6100f6565b9050919050565b5f6101498261011e565b9050919050565b5f61015a8261013f565b9050919050565b61016a81610150565b82525050565b5f6020820190506101835f830184610161565b9291505056fe6080604052348015600e575f80fd5b506101438061001c5f395ff3fe608060405234801561000f575f80fd5b5060043610610034575f3560e01c80632e64cec1146100385780636057361d14610056575b5f80fd5b610040610072565b60405161004d919061009b565b60405180910390f35b610070600480360381019061006b91906100e2565b61007a565b005b5f8054905090565b805f8190555050565b5f819050919050565b61009581610083565b82525050565b5f6020820190506100ae5f83018461008c565b92915050565b5f80fd5b6100c181610083565b81146100cb575f80fd5b50565b5f813590506100dc816100b8565b92915050565b5f602082840312156100f7576100f66100b4565b5b5f610104848285016100ce565b9150509291505056fea26469706673582212209753f7b714b583d29f087e9ab8890426e8bf86c8d07fa6dde7191924603a501364736f6c634300081a0033a264697066735822122084a653bc94adaf4500643dc8db16c9087b1428987dff6068fcc1c1400e980e1264736f6c634300081a0033",
			"opcodes": "PUSH1 0x80 PUSH1 0x40 MSTORE CALLVALUE DUP1 ISZERO PUSH1 0xE JUMPI PUSH0 DUP1 REVERT JUMPDEST POP PUSH2 0x31E DUP1 PUSH2 0x1C PUSH0 CODECOPY PUSH0 RETURN INVALID PUSH1 0x80 PUSH1 0x40 MSTORE CALLVALUE DUP1 ISZERO PUSH2 0xF JUMPI PUSH0 DUP1 REVERT JUMPDEST POP PUSH1 0x4 CALLDATASIZE LT PUSH2 0x34 JUMPI PUSH0 CALLDATALOAD PUSH1 0xE0 SHR DUP1 PUSH4 0x40D66B3B EQ PUSH2 0x38 JUMPI DUP1 PUSH4 0x6BE0D6BF EQ PUSH2 0x42 JUMPI JUMPDEST PUSH0 DUP1 REVERT JUMPDEST PUSH2 0x40 PUSH2 0x60 JUMP JUMPDEST STOP JUMPDEST PUSH2 0x4A PUSH2 0xC6 JUMP JUMPDEST PUSH1 0x40 MLOAD PUSH2 0x57 SWAP2 SWAP1 PUSH2 0x170 JUMP JUMPDEST PUSH1 0x40 MLOAD DUP1 SWAP2 SUB SWAP1 RETURN JUMPDEST PUSH1 0x40 MLOAD PUSH2 0x6C SWAP1 PUSH2 0xE9 JUMP JUMPDEST PUSH1 0x40 MLOAD DUP1 SWAP2 SUB SWAP1 PUSH0 CREATE DUP1 ISZERO DUP1 ISZERO PUSH2 0x85 JUMPI RETURNDATASIZE PUSH0 DUP1 RETURNDATACOPY RETURNDATASIZE PUSH0 REVERT JUMPDEST POP PUSH0 DUP1 PUSH2 0x100 EXP DUP2 SLOAD DUP2 PUSH20 0xFFFFFFFFFFFFFFFFFFFFFFFFFFFFFFFFFFFFFFFF MUL NOT AND SWAP1 DUP4 PUSH20 0xFFFFFFFFFFFFFFFFFFFFFFFFFFFFFFFFFFFFFFFF AND MUL OR SWAP1 SSTORE POP JUMP JUMPDEST PUSH0 DUP1 SLOAD SWAP1 PUSH2 0x100 EXP SWAP1 DIV PUSH20 0xFFFFFFFFFFFFFFFFFFFFFFFFFFFFFFFFFFFFFFFF AND DUP2 JUMP JUMPDEST PUSH2 0x15F DUP1 PUSH2 0x18A DUP4 CODECOPY ADD SWAP1 JUMP JUMPDEST PUSH0 PUSH20 0xFFFFFFFFFFFFFFFFFFFFFFFFFFFFFFFFFFFFFFFF DUP3 AND SWAP1 POP SWAP2 SWAP1 POP JUMP JUMPDEST PUSH0 DUP2 SWAP1 POP SWAP2 SWAP1 POP JUMP JUMPDEST PUSH0 PUSH2 0x138 PUSH2 0x133 PUSH2 0x12E DUP5 PUSH2 0xF6 JUMP JUMPDEST PUSH2 0x115 JUMP JUMPDEST PUSH2 0xF6 JUMP JUMPDEST SWAP1 POP SWAP2 SWAP1 POP JUMP JUMPDEST PUSH0 PUSH2 0x149 DUP3 PUSH2 0x11E JUMP JUMPDEST SWAP1 POP SWAP2 SWAP1 POP JUMP JUMPDEST PUSH0 PUSH2 0x15A DUP3 PUSH2 0x13F JUMP JUMPDEST SWAP1 POP SWAP2 SWAP1 POP JUMP JUMPDEST PUSH2 0x16A DUP2 PUSH2 0x150 JUMP JUMPDEST DUP3 MSTORE POP POP JUMP JUMPDEST PUSH0 PUSH1 0x20 DUP3 ADD SWAP1 POP PUSH2 0x183 PUSH0 DUP4 ADD DUP5 PUSH2 0x161 JUMP JUMPDEST SWAP3 SWAP2 POP POP JUMP INVALID PUSH1 0x80 PUSH1 0x40 MSTORE CALLVALUE DUP1 ISZERO PUSH1 0xE JUMPI PUSH0 DUP1 REVERT JUMPDEST POP PUSH2 0x143 DUP1 PUSH2 0x1C PUSH0 CODECOPY PUSH0 RETURN INVALID PUSH1 0x80 PUSH1 0x40 MSTORE CALLVALUE DUP1 ISZERO PUSH2 0xF JUMPI PUSH0 DUP1 REVERT JUMPDEST POP PUSH1 0x4 CALLDATASIZE LT PUSH2 0x34 JUMPI PUSH0 CALLDATALOAD PUSH1 0xE0 SHR DUP1 PUSH4 0x2E64CEC1 EQ PUSH2 0x38 JUMPI DUP1 PUSH4 0x6057361D EQ PUSH2 0x56 JUMPI JUMPDEST PUSH0 DUP1 REVERT JUMPDEST PUSH2 0x40 PUSH2 0x72 JUMP JUMPDEST PUSH1 0x40 MLOAD PUSH2 0x4D SWAP2 SWAP1 PUSH2 0x9B JUMP JUMPDEST PUSH1 0x40 MLOAD DUP1 SWAP2 SUB SWAP1 RETURN JUMPDEST PUSH2 0x70 PUSH1 0x4 DUP1 CALLDATASIZE SUB DUP2 ADD SWAP1 PUSH2 0x6B SWAP2 SWAP1 PUSH2 0xE2 JUMP JUMPDEST PUSH2 0x7A JUMP JUMPDEST STOP JUMPDEST PUSH0 DUP1 SLOAD SWAP1 POP SWAP1 JUMP JUMPDEST DUP1 PUSH0 DUP2 SWAP1 SSTORE POP POP JUMP JUMPDEST PUSH0 DUP2 SWAP1 POP SWAP2 SWAP1 POP JUMP JUMPDEST PUSH2 0x95 DUP2 PUSH2 0x83 JUMP JUMPDEST DUP3 MSTORE POP POP JUMP JUMPDEST PUSH0 PUSH1 0x20 DUP3 ADD SWAP1 POP PUSH2 0xAE PUSH0 DUP4 ADD DUP5 PUSH2 0x8C JUMP JUMPDEST SWAP3 SWAP2 POP POP JUMP JUMPDEST PUSH0 DUP1 REVERT JUMPDEST PUSH2 0xC1 DUP2 PUSH2 0x83 JUMP JUMPDEST DUP2 EQ PUSH2 0xCB JUMPI PUSH0 DUP1 REVERT JUMPDEST POP JUMP JUMPDEST PUSH0 DUP2 CALLDATALOAD SWAP1 POP PUSH2 0xDC DUP2 PUSH2 0xB8 JUMP JUMPDEST SWAP3 SWAP2 POP POP JUMP JUMPDEST PUSH0 PUSH1 0x20 DUP3 DUP5 SUB SLT ISZERO PUSH2 0xF7 JUMPI PUSH2 0xF6 PUSH2 0xB4 JUMP JUMPDEST JUMPDEST PUSH0 PUSH2 0x104 DUP5 DUP3 DUP6 ADD PUSH2 0xCE JUMP JUMPDEST SWAP2 POP POP SWAP3 SWAP2 POP POP JUMP INVALID LOG2 PUSH5 0x6970667358 0x22 SLT KECCAK256 SWAP8 MSTORE8 0xF7 0xB7 EQ 0xB5 DUP4 0xD2 SWAP16 ADDMOD PUSH31 0x9AB8890426E8BF86C8D07FA6DDE7191924603A501364736F6C634300081A00 CALLER LOG2 PUSH5 0x6970667358 0x22 SLT KECCAK256 DUP5 0xA6 MSTORE8 0xBC SWAP5 0xAD 0xAF GASLIMIT STOP PUSH5 0x3DC8DB16C9 ADDMOD PUSH28 0x1428987DFF6068FCC1C1400E980E1264736F6C634300081A00330000 "
		},
		"gasEstimates": {
			"creation": {
				"codeDepositCost": "159600",
				"executionCost": "200",
				"totalCost": "159800"
			},
			"external": {
				"createSimpleStorage()": "infinite",
				"simpleStorage()": "infinite"
			}
		},
		"methodIdentifiers": {
			"createSimpleStorage()": "40d66b3b",
			"simpleStorage()": "6be0d6bf"
		}
	},
	"abi": [
		{
			"inputs": [],
			"name": "createSimpleStorage",
			"outputs": [],
			"stateMutability": "nonpayable",
			"type": "function"
		},
		{
			"inputs": [],
			"name": "simpleStorage",
			"outputs": [
				{
					"internalType": "contract Storage",
					"name": "",
					"type": "address"
				}
			],
			"stateMutability": "view",
			"type": "function"
		}
	]
}